:100000000C9463010C948B010C948B010C948B0168
:100010000C948B010C948B010C948B010C948B0130
:100020000C948B010C948B010C948B010C948B0120
:100030000C948B010C948B010C948B010C948B0110
:100040000C943F0B0C948B010C94340F0C94770F91
:100050000C948B010C948B010C948B010C948B01F0
:100060000C94D4180C948B0105A84CCDB2D44EB985
:100070003836A9020C50B9918688083CA6AAAA2A4B
:10008000BE000000803F6E616E00696E66006364B2
:10009000696E6F70737578585B6566674546470093
:1000A0006E66696E69747900616E0000002041001F
:1000B00000C84200401C4620BCBE4CCA1B0E5AAEB3
:1000C000C59D74CDCCCC3D0AD7233C17B7D138772A
:1000D000CC2B329595E6241FB14F0A476F6F6420F1
:1000E0006D6F726E696E672100626F742069732094
:1000F0000020627974657300426F742062656761E5
:100100006E000D0A47697665206120502076616C8B
:100110007565002566000D0A4769766520612049EE
:100120002076616C7565002566000D0A4769766565
:10013000206120442076616C7565002566000D0AFB
:1001400047697665206120536574706F696E74002D
:10015000256C64000D0A456E746572206E6577200B
:100160005049442076616C756573002566202566CC
:1001700020256600256620256620256600000000F3
:100180000700020100000304060000000000000058
:100190000001020408102040800102040810200120
:1001A00002040810200404040404040404020202EB
:1001B00002020203030303030300000000250028DA
:1001C000002B0000407A10F35A00A0724E1809006C
:1001D00010A5D4E80000E87648170000E40B5402AC
:1001E0000000CA9A3B000000E1F5050000809698E7
:1001F00000000040420F000000A086010000001037
:100200002700000000E80300000000640000000078
:10021000000A00000000000100000000002C76D859
:1002200088DC674F0823DFC1DFAE59E1B1B796E53F
:10023000E3E453C63AE651997696E8E6C28426EBA3
:10024000898C9B62ED407C6FFCEFBC9C9F40F2BAB6
:10025000A56FA5F490055A2AF75C936B6CF9676D4E
:10026000C11BFCE0E40D47FEF520E6B500D0ED90A3
:100270002E0300943577050080841E080000204E70
:100280000A000000C80C333333330F986E12831109
:1002900041EF8D2114893BE65516CFFEE6DB18D1E0
:1002A000844B381BF77C1D901DA4BBE424203284B2
:1002B000725E228100C9F124ECA1E53D2700050B07
:1002C00033101717F11711241FBECFEFD8E0DEBF90
:1002D000CDBF11E0A0E0B1E0E8EEFFE302C0059081
:1002E0000D92A233B107D9F713E0A2E3B1E001C048
:1002F0001D92AC3EB107E1F712E0C6ECD2E004C0BB
:100300002297FE010E94EE1FCE3BD107C9F70E9443
:100310008B0E0C94651A0C940000A3E1B0E0E3E9A5
:10032000F1E00C94B51F7C015B018A01FC0117828E
:100330001682838181FD03C06DC3860105C08824B8
:100340008394912C8C0E9D1EF7019381F50193FDF2
:10035000859193FF81915F01882309F457C385320A
:1003600039F493FD859193FF81915F01853231F4DA
:10037000B70190E00E94B11B6801DFCF412C512CE6
:1003800020E02032A8F48B3261F028F4803251F062
:10039000833271F40BC08D3239F0803349F421601F
:1003A00028C02260246025C0286023C0206121C0AD
:1003B00027FD27C0382F30533A3078F426FF06C087
:1003C000FAE04F9E300D1124432E13C08AE0589E50
:1003D000300D1124532E20620CC08E3221F426FDE4
:1003E00015C3206406C08C3611F4206802C088361C
:1003F00041F4F50193FD859193FF81915F01811196
:10040000C0CF982F9554933018F42061805E06C0B9
:10041000982F9556933008F0A1C12F7E26FD02C07B
:1004200056E0452E4FE3742E7222853619F4F0E41F
:100430007F2A07C0863619F420E8722A02C04110CC
:100440004A9477FE07C03BE3341548F0342C3394CC
:1004500027E00DC087E0841530F0242D07C027E089
:100460003CE3332E04C027E097E0492E312C68018D
:1004700094E0C90ED11CF801608171818281938161
:10048000032DA4010E94681A8C0129812C8720FF6A
:1004900002C023FF07C071FC08C072FE09C080E2E1
:1004A000682E07C0BDE26B2E04C0ABE26A2E01C00D
:1004B000612C8C858C70A1F1662011F084E001C064
:1004C00083E0851510F0512C0BC0581A73FC08C03E
:1004D000B70180E290E00E94B11B5A94C9F7F3CFB4
:1004E000662029F0B701862D90E00E94B11B3C8563
:1004F00033FD03C00AE810E00CC006E810E009C0B4
:1005000071108052B70190E00E94B11B0F5F1F4F26
:1005100002C080E17822F80184918111F1CF73C289
:1005200077FE0EC0300E2C8524FF04C08A818133F3
:1005300009F43A9413144CF538E0331548F12CC003
:1005400076FC2AC0242D30E02017310744F00C3F00
:100550008FEF180724F090E8792A01C04A944420CC
:1005600049F0E2E0F0E0EC0FFD1FE40DF11D8081A9
:100570008033A1F377FE10C0342C3394242D30E067
:100580000217130744F4401A07C03324339404C0FD
:10059000F8E03F2E01C0412C77FE07C0101611066F
:1005A0003CF498012F5F3F4F05C025E030E002C0CA
:1005B00021E030E0662011F02F5F3F4F442031F002
:1005C000442D50E04F5F5F4F240F351F452D50E005
:1005D0002417350714F4521A01C0512C872D897045
:1005E00049F406C0B70180E290E00E94B11B5A9422
:1005F0005110F8CF662029F0B701862D90E00E94B7
:10060000B11B73FC09C006C0B70180E390E00E94F3
:10061000B11B5A945110F8CF77FE53C0380117FF21
:1006200002C0612C712C1E861D8698012319310988
:10063000388B2F87180126183708280C391C642D91
:1006400070E022273327261B370B3A8B298B3FEF8D
:100650006316730629F4B7018EE290E00E94B11B85
:10066000061517055CF02F8538892615370534F4F3
:10067000ED85FE85E20DF31D818101C080E331E04F
:10068000631A71082D853E852F5F3F4F3E872D876A
:1006900029893A89621673062CF0B70190E00E940E
:1006A000B11BD5CF6016710649F49A81963328F4B0
:1006B000953321F43C8534FD01C081E3B70190E01E
:1006C0004AC08A81813319F02C852F7E2C87B7018F
:1006D00090E00E94B11B411005C074FE16C085E475
:1006E00090E015C0B7018EE290E00E94B11BE2E0FD
:1006F0006E2EF401E60DF11D6394B701808190E048
:100700000E94B11B4A94A9F7E8CF85E690E0B701B3
:100710000E94B11B17FD06C00115110541F43C856F
:1007200034FF05C01195019511098DE201C08BE2DE
:10073000B70190E00E94B11B80E303C08F5F0A50B5
:1007400011090A301105D4F7B70190E00E94B11BDE
:10075000B701C801C0960E94B11B55C1833631F064
:10076000833781F0833509F05EC024C0680182E0E0
:10077000C80ED11CF8018081898366246394712C92
:10078000840114C06801F2E0CF0ED11CF801008191
:10079000118126FF03C0642D70E002C06FEF7FEF70
:1007A000C8012B8B0E94661B3C012B896FE7462EEC
:1007B000422217C06801F2E0CF0ED11CF80100817F
:1007C000118126FF03C0642D70E002C06FEF7FEF40
:1007D000C8012B8B0E945B1B3C012B8950E8452EE6
:1007E000422A43FC1CC006C0B70180E290E00E9490
:1007F000B11B5A94852D90E068167906A8F30FC0B6
:10080000F80147FC859147FE81918F01B70190E087
:100810000E94B11B51105A94F1E06F1A71086114D3
:10082000710471F7F0C0843611F0893661F5680102
:1008300027FF09C034E0C30ED11CF801608171812B
:10084000828193810AC0F2E0CF0ED11CF801608151
:100850007181882777FD8095982F4FE6742E72223C
:1008600097FF09C090958095709561957F4F8F4F48
:100870009F4FF0E87F2A2AE030E0A4010E94421C4A
:10088000682E681847C0853731F43FEE732E722208
:100890002AE030E024C099EF792E72228F36B9F029
:1008A00020F4883509F0B2C00DC0803721F08837B8
:1008B00009F0ACC002C020E1722A74FE0BC034E023
:1008C000732A08C024FF09C086E0782A06C028E001
:1008D00030E005C020E130E002C020E132E06801F4
:1008E00077FE09C094E0C90ED11CF80160817181C6
:1008F0008281938108C0F2E0CF0ED11CF8016081A3
:10090000718180E090E0A4010E94421C682E68186A
:10091000FFE77F2276FE0BC0072D0E7F641450F494
:1009200074FE0AC072FC08C0072D0E7E05C0162D8D
:10093000072D03C0162D01C0142D04FF0CC0FE01AD
:10094000E60DF11D8081803311F4097E08C002FF9D
:1009500005C01E5F04C0802F867809F01F5F03FD6D
:1009600012C000FF0DC0462C151550F4450C411A5D
:10097000152D06C0B70180E290E00E94B11B1F5FF9
:100980001515C0F304C0151510F4511A01C0512CEF
:1009900004FF10C0B70180E390E00E94B11B02FF8A
:1009A0001EC001FF03C088E590E002C088E790E028
:1009B000B7010CC0802F867891F001FD02C080E263
:1009C00001C08BE207FD8DE2B70190E00E94B11BF0
:1009D00006C0B70180E390E00E94B11B4A94641402
:1009E000C0F36A94F401E60DF11DB701808190E037
:1009F0000E94B11B6110F5CF06C0B70180E290E004
:100A00000E94B11B5A945110F8CF97CCF701268160
:100A1000378102C02FEF3FEFC9016396E2E10C94EA
:100A2000D11F20FD09C0FC0123FD05C022FF02C02B
:100A300073836283518340830895CF92DF92EF9254
:100A4000FF920F931F9344FD10C046FD10C0DB01C1
:100A5000FC01AA0FBB1FEE1FFF1F1094D1F76A0FF6
:100A60007B1F8E1F9F1F31E003C033E001C034E0C5
:100A7000660F771F881F991F3150D1F76B017C01DA
:100A8000C20ED11CE11CF11C97018601B601C901FF
:100A90001F910F91FF90EF90DF90CF9008950F93EB
:100AA0001F93CF93DF938C01C8010E94711BEC014F
:100AB00097FD08C00E94401B892BB1F7B801CE01F9
:100AC0000E94271CCE01DF91CF911F910F910895B5
:100AD0006F927F929F92AF92BF92CF92DF92EF92EE
:100AE000FF920F931F93CF93DF931F92CDB7DEB783
:100AF0008C013B015A0129830E94711BBC0177279D
:100B000029816B32710521F06D32710571F4206815
:100B100081E0681A710811F480E072C0C80129836D
:100B20000E94711B298197FDF7CF5DEF952E9222D0
:100B3000322F307329F5803319F5E1E06E1A710810
:100B400009F44AC0C80129830E94711B298197FDBD
:100B500043C0883711F0883561F4F2E49F2A21E020
:100B6000621A7108C9F1C8010E94711B97FF08C081
:100B700033C026FF03C0E2E09E2A02C0F2E19F2AB2
:100B8000C12CD12C7601282F2053283080F094FEE0
:100B900004C0B8010E94271C1CC02A3040F096FEF9
:100BA000F8CF2F7D322F3151363098F72750492D0D
:100BB000C701B6010E941D056B017C0122E0922A4B
:100BC00081E0681A710859F0C8010E94711B97FFF3
:100BD000DACF91FC04C0A0CFC12CD12C760197FEB6
:100BE00008C0F094E094D094C094C11CD11CE11CC6
:100BF000F11C292DB701A601C5010E94110581E054
:100C00000F90DF91CF911F910F91FF90EF90DF90A8
:100C1000CF90BF90AF909F907F906F9008954F922C
:100C20005F927F928F929F92AF92BF92CF92DF920C
:100C3000EF92FF920F931F93CF93DF93CDB7DEB761
:100C4000A0970FB6F894DEBF0FBECDBF6C015B015D
:100C50007A018901FE01319680E2DF011D928A95B9
:100C6000E9F7D60113967C9020E030E0812CB0E0CB
:100C7000912CCF0141E050E0F80173FCA59173FE87
:100C8000A1918F01A11103C000E010E07FC0AE353B
:100C900019F42115310551F1692D70E062177307C0
:100CA0003CF4AD3561F1AD3219F4BB2311F103C051
:100CB000B11101C08A2E6A2F669566956695FC0172
:100CC000E60FF11D6A2F67702A0102C0440C551C03
:100CD0006A95E2F7B2017081762B7083A81559F0FE
:100CE000A81510F4AF5FE7CFA150E5CF99249394F6
:100CF00003C0B1E001C0B0E02F5F3F4FBDCFBB23C9
:100D000019F08E8180628E83911003C09924939490
:100D10000BC0FE013196CE01819620812095219352
:100D2000E817F907D1F7F2CFC6010E94711B97FDB2
:100D300026C0282F269526952695E1E0F0E0EC0FB9
:100D4000FD1FE20FF11D208130E0AC0147705527F7
:100D500002C0359527954A95E2F720FD04C0B601FB
:100D60000E94271C0CC0E114F10419F0D7018D93E7
:100D70007D01B1E0AB1AB108912CB1F602C091101F
:100D800083CFE114F10411F0F7011082C801A0969D
:100D90000FB6F894DEBF0FBECDBFDF91CF911F918C
:100DA0000F91FF90EF90DF90CF90BF90AF909F900A
:100DB0008F907F905F904F900895A6E0B0E0E3EEB3
:100DC000F6E00C94B51F1C017E836D835A83498322
:100DD0000E94711B3C0199278B32910519F08D9768
:100DE000A1F402C010E001C010E88D819E8101973E
:100DF0009E838D83892B11F480E038C1C1010E944C
:100E0000711B3C0197FF02C0F7CF10E0C3010E94A5
:100E1000481B8936910559F18E36910509F03EC07F
:100E200021C0ED81FE813197FE83ED83EF2B71F0C0
:100E3000C1010E94711B6C0197FD08C00E94481BF4
:100E40000817C9F0B101C6010E94271CF3EAEF168A
:100E5000F0E0FF0689F6C12CD12C80E8E82E8FE760
:100E6000F82EF5C008EAE02E00E0F02E04C0B0EA4B
:100E7000EB2EB0E0FB2EF7018FEFE81AF80A049191
:100E80000111CFCF9BEAE91690E0F90621F7C12CBA
:100E9000D12CA0ECEA2EAFE7FA2ED9C0C12CD12C70
:100EA0007601412C512C262D20532A3018F5012F84
:100EB0000260812F887012FF06C0811121C0EFEF00
:100EC0004E1A5E0A1DC0882319F0F1E04F1A51082E
:100ED00040E2C701B6010E941D056B017C0188E953
:100EE000C81689E9D806E80689E1F80648F0012F16
:100EF000066006C02E3FA1F413FD12C0012F08604A
:100F0000ED81FE813197FE83ED83EF2B41F0C1012E
:100F10000E94711B3C01102F97FFC5CF01C0102FFD
:100F200011FF6ACF862D853619F0853409F04DC042
:100F30008D819E8101979E838D83892B09F45CCFDF
:100F4000C1010E94711B3C0197FD56CF99278B323E
:100F5000910519F08D9769F41061ED81FE8131974B
:100F6000FE83ED83EF2B09F447CFC1010E94711B73
:100F70003C01C301C0970A9708F03ECF60E070E0E3
:100F8000262D2053882777FD8095982F40E20E94D8
:100F90001D054B015C018D819E8101979E838D8390
:100FA000892B59F0C1016B837C830E94711B3C012A
:100FB000C0976B817C810A9718F314FF04C06627E1
:100FC000772768197909460E571EED81FE81EF2BB0
:100FD00031F077FC04C0B101C3010E94271CC70196
:100FE000B6010E94A51D6B017C0157FE08C05194FB
:100FF00041945108F7ED6F2EF0E07F2E04C0EFEB27
:101000006E2EE0E07E2E4301F8E18F1A910870E227
:10101000A72EB12C11C0F30185919591A591B491A2
:10102000282F392F4A2F5B2FC701B6010E94941E2B
:101030006B017C014A185B084A145B0460F784E08A
:10104000681A7108B694A79468147904A9F717FF71
:1010500004C0F7FAF094F7F8F094E981FA81309738
:1010600021F0C082D182E282F38281E02696E2E121
:101070000C94D11FA1E0B0E0E0E4F8E00C94B71FBD
:101080008C012B014A01FC0117821682712C05C1CB
:101090008F2D90E00E94401B892B21F0C8010E94F7
:1010A0004F05FBC0F5E2FF120AC0F201D3FC3591F7
:1010B000D3FE31912F01353271F425E2F22EC801B1
:1010C0000E94711B97FDF4C0F81609F4E6C0B80140
:1010D0000E94271CEFC03A3241F4D3FC3591D3FE75
:1010E00031912F016624639401C0612CE12CF12C15
:1010F0000FC0F2E06F2AB70180E090E040E20E946A
:101100001D057B01F201D3FC3591D3FE31912F01F6
:10111000232F20532A3068F361FE04C0E114F10448
:1011200021F4C8C0EE24EA94FE2C383619F03C367F
:1011300099F40AC0F201D3FC3591D3FE31912F010D
:10114000383651F4F8E06F2A84E0682AF201D3FCC3
:101150003591D3FE31912F01332309F4ABC0632FB6
:1011600070E08EE890E039830E94501B3981892B12
:1011700009F4A0C060FC07C0F401C080D18082E007
:10118000880E911C02C0C12CD12C3E3651F4F801BE
:101190004681578160E070E0262DC6010E9411054E
:1011A0007CC03336A9F461FC03C0EE24E394F12C37
:1011B000C8010E94711B97FD7BC0C114D10419F0B6
:1011C000F60181936F01F1E0EF1AF10889F763C02E
:1011D0003B3559F49201A601B701C8010E940F06E0
:1011E0002C01009709F057C051C0C80139830E94F3
:1011F0004F05398197FD5CC03F36C1F138F4343674
:1012000091F13936A9F13835D1F52AC0333749F093
:1012100018F43037A1F524C0353729F1383779F57E
:101220001FC0C8010E94711B5C0197FD13C00E9482
:10123000401B892B29F0B801C5010E94271C0AC058
:10124000C114D10419F0F601A1926F01F1E0EF1A77
:10125000F10839F7C114D104F1F0F60110821BC076
:10126000F0E46F2A05C080E2682A02C090E1692A92
:10127000262DA601B701C8010E94680505C0A60178
:10128000B701C8010E94DD06811105C0F801838104
:10129000807371F40FC060FE7394F801D380F20183
:1012A000D3FCF590D3FEF1902F01F110F1CE02C0E6
:1012B000772019F0272D30E002C02FEF3FEFC90152
:1012C0002196E0E10C94D31F40E052EC61E070E025
:1012D0008FE592E00E94B20F6BED70E08FE592E037
:1012E0000E94900C69EE70E08FE592E00E94520C33
:1012F0004AE050E066EF70E08FE592E00E940D0D4D
:1013000061EF70E08FE592E00E94900C83E591E040
:101310000E94DB1368EF70E08FE592E00C94900C74
:101320008F929F92AF92BF92CF92DF92EF92FF92F5
:101330000F931F93CF93DF93CDB7DEB768970FB6A8
:10134000F894DEBF0FBECDBF8FE592E00E94980EED
:10135000892B09F4E7C08FE592E00E94AB0E80373D
:101360009105E9F48FE592E00E94C70E62E071E01A
:101370008FE592E00E94900C80E091E09F938F9324
:1013800083E191E09F938F930E94021C40910001A2
:1013900050910101609102017091030123C08FE51A
:1013A00092E00E94AB0E8936910539F58FE592E007
:1013B0000E94C70E66E171E08FE592E00E94900CFA
:1013C00089E492E09F938F9387E291E09F938F93BC
:1013D0000E94021C4091490250914A0260914B02C6
:1013E00070914C0222E030E08FE592E00E94690E9D
:1013F0000F900F900F900F9095C08FE592E00E9494
:10140000AB0E84369105E9F48FE592E00E94C70E99
:101410006AE271E08FE592E00E94900C8DE492E028
:101420009F938F938BE391E09F938F930E94021C75
:1014300040914D0250914E0260914F0270915002C6
:10144000D1CF8FE592E00E94AB0E8337910519F55D
:101450008FE592E00E94C70E6EE371E08FE592E0A7
:101460000E94900C81E592E09F938F9380E591E03C
:101470009F938F930E94021C4091510250915202FF
:1014800060915302709154022AE030E08FE592E0BF
:101490000E945E0DADCF64E571E08FE592E00E94A1
:1014A000900C8DE492E09F938F9389E492E09F9358
:1014B0008F9380E091E09F938F938BE691E09F93D1
:1014C0008F930E94021C809150028F9380914F0253
:1014D0008F9380914E028F9380914D028F938091D4
:1014E0004C028F9380914B028F9380914A028F938D
:1014F000809149028F93809103018F938091020123
:101500008F93809101018F93809100018F9384E7E5
:1015100091E09F938F930E94DD1B0FB6F894DEBF7E
:101520000FBECDBFC0904D02D0904E02E0904F0252
:10153000F09050020091490210914A0220914B0212
:1015400030914C02409100015091010160910201E3
:101550007091030182E391E00E94D41583E591E04C
:101560000E948813BE016F5F7F4F83E591E00E9468
:10157000C310AE014F5E5F4FBE016B5E7F4F83E5D0
:1015800091E00E94EE100E94890B6B017C0160913A
:1015900051027091520280915302909154020E9424
:1015A000A71D4B015C016D897E898F89988D0E94F2
:1015B000A71DAB01BC019501840182E391E00E946B
:1015C000A9140E94741D20E030E0AB0160E070E0DF
:1015D00083E591E00E9452146AE070E080E090E0C0
:1015E0000E94B30B68960FB6F894DEBF0FBECDBF56
:1015F000DF91CF911F910F91FF90EF90DF90CF90EF
:10160000BF90AF909F908F900895AF92BF92CF926E
:10161000DF92EF92FF920F931F9385E592E00E9475
:10162000E8166CE083E591E00E9489101F921F92FA
:101630001F921F921F921F921F921F92A12CB12CDA
:101640006501E12CF12C0FE713E420E030E04FE7D7
:1016500053EC61E082E391E00E9459168DB79EB78A
:1016600008960FB6F8949EBF0FBE8DBF1F910F91C5
:10167000FF90EF90DF90CF90BF90AF9008951F92B2
:101680000F920FB60F9211242F933F938F939F9336
:10169000AF93BF938091560290915702A091580248
:1016A000B091590230915E02232F2D5F2D3720F427
:1016B0000196A11DB11D05C0232F2A570296A11D19
:1016C000B11D20935E028093560290935702A0931F
:1016D0005802B093590280915A0290915B02A091F6
:1016E0005C02B0915D020196A11DB11D80935A026A
:1016F00090935B02A0935C02B0935D02BF91AF91A7
:101700009F918F913F912F910F900FBE0F901F903F
:1017100018950F931F939FB7F89400915A02109158
:101720005B0220915C0230915D0286B5A89B06C0E9
:101730008F3F21F00F5F1F4F2F4F3F4F9FBF322F23
:10174000212F102F0027080F111D211D311D42E0F0
:10175000000F111F221F331F4A95D1F7B801C9018D
:101760001F910F910895CF92DF92EF92FF92CF9346
:10177000DF936B017C010E94890BEB010EC00E947C
:10178000890B6C1B7D0B683E734038F081E0C81AF2
:10179000D108E108F108C851DC4FC114D104E104BB
:1017A000F10469F7DF91CF91FF90EF90DF90CF9038
:1017B0000895789484B5826084BD84B5816084BDC9
:1017C00085B5826085BD85B5816085BDEEE6F0E0BA
:1017D000808181608083E1E8F0E010828081826016
:1017E0008083808181608083E0E8F0E08081816097
:1017F0008083E1EBF0E0808184608083E0EBF0E0C7
:10180000808181608083EAE7F0E08081846080836A
:101810008081826080838081816080838081806814
:1018200080831092C1000895CF92DF92EF92FF92D1
:101830000F931F93CF93DF936C01EB017A01E60EB8
:10184000F71E00E010E00BC06991D601ED91FC910C
:101850000190F081E02DC6010995080F191FCE15E2
:10186000DF0591F7C801DF91CF911F910F91FF9094
:10187000EF90DF90CF9008956115710581F0DB0145
:101880000D900020E9F7AD0141505109461B570B5F
:10189000DC01ED91FC910280F381E02D099480E060
:1018A00090E00895EF92FF920F931F93CF93DF93F1
:1018B0007C01EB0100E010E0FE01219664916623BB
:1018C00051F0F701A081B181ED91FC91C70109951B
:1018D000080F191FF1CFC801DF91CF911F910F9110
:1018E000FF90EF900895DC01ED91FC910190F08163
:1018F000E02D09940F931F93CF93DF93EC016DE0DC
:101900000E94730C8C016AE0CE010E94730C9C0152
:10191000200F311FC901DF91CF911F910F910895C1
:101920000F931F93CF93DF93EC010E94520C8C0115
:10193000CE010E947A0C9C01200F311FC901DF915A
:10194000CF911F910F9108954F925F926F927F9266
:101950009F92AF92BF92CF92DF92EF92FF920F933E
:101960001F93CF93DF93CDB7DEB7A1970FB6F8944F
:10197000DEBF0FBECDBF5C016A017B01922E19A2B2
:1019800081E0821710F08AE0982E8E010F5D1F4FC4
:10199000492C512C612C712CC701B601A301920175
:1019A0000E94771F8C2D929E8019112401501109DD
:1019B0008A3014F4805D01C0895CF801808369017C
:1019C0007A01C114D104E104F10431F7B801C50171
:1019D0000E943C0CA1960FB6F894DEBF0FBECDBF9F
:1019E000DF91CF911F910F91FF90EF90DF90CF90FB
:1019F000BF90AF909F907F906F905F904F900895B1
:101A00002115310541F4DC01ED91FC910190F0814B
:101A1000E02D642F09940C94A40C9A01AB0160E0B2
:101A200070E00C94000DCF92DF92EF92FF920F9333
:101A30001F93CF93DF93EC016A017B0121153105E0
:101A400079F4E881F9810190F081E02D642FDF9134
:101A5000CF911F910F91FF90EF90DF90CF9009945D
:101A60002A30310519F477FD0EC02AE0B701A6012E
:101A7000CE01DF91CF911F910F91FF90EF90DF90FA
:101A8000CF900C94A40C6DE20E94730C8C0144273F
:101A90005527BA014C195D096E097F092AE0CE016C
:101AA0000E94A40C080F191FC801DF91CF911F914C
:101AB0000F91FF90EF90DF90CF9008950F931F93B9
:101AC000CF93DF93EC010E94130D8C01CE010E9495
:101AD0007A0C9C01200F311FC901DF91CF911F911A
:101AE0000F9108957F928F929F92AF92BF92CF9263
:101AF000DF92EF92FF920F931F93CF93DF93EC014E
:101B00006A017B01122F9A01AB01C701B6010E9445
:101B1000FD1E882319F064E071E032C046015701D0
:101B2000E894B7F82FEF3FEF4FE75FE7C501B40147
:101B30000E94FD1E81110DC02FEF3FEF4FE75FE7C1
:101B4000C501B4010E94051D18161CF468E071E07F
:101B500017C02FEF3FEF4FE75FE4C701B6010E94C8
:101B6000901E18160CF40AC02FEF3FEF4FE75FEC02
:101B7000C701B6010E94051D87FF12C06CE071E02D
:101B8000CE01DF91CF911F910F91FF90EF90DF90E9
:101B9000CF90BF90AF909F908F907F900C943C0C13
:101BA00020E030E0A901C701B6010E94051D87FFB2
:101BB0000AC06DE2CE010E94730C5C01F7FAF0944A
:101BC000F7F8F09402C0A12CB12C00E060E070E0C6
:101BD00080E09FE307C020E030E040E251E40E9453
:101BE0000C1D0F5F0113F7CF262F372F482F592FCA
:101BF000C701B6010E94A11C762E872E982EC92EF1
:101C00000E94791DD62EE72EF82E092F0E94A51DC1
:101C10009B01AC01672D782D892D9C2D0E94A01C65
:101C2000C62E972E882E792E2AE04D2D5E2D6F2DF3
:101C3000702FCE010E94A40C7C01EA0CFB1C112326
:101C4000B9F160E171E0CE010E943C0CE80EF91E92
:101C50002FC020E030E040E251E46C2D792D882D3A
:101C6000972D0E94941E762E072F6C019D2D0E94A9
:101C7000741D4B01AA2497FCA094BA2C2AE030E0F2
:101C8000B501A401CE010E94130DE80EF91EC50195
:101C9000B4010E94A71D9B01AC01672D702F8C2DF4
:101CA0009D2D0E94A01CC62E972E882E792E115095
:101CB0001111CFCFC701DF91CF911F910F91FF90ED
:101CC000EF90DF90CF90BF90AF909F908F907F90DC
:101CD00008950F931F93CF93DF93EC010E94720D31
:101CE0008C01CE010E947A0C9801280F391FC9017E
:101CF000DF91CF911F910F91089521E030E0FC0119
:101D00008081882311F020E030E0C901089521E0AE
:101D1000FC01208308950E94D90B0E946409CEE63D
:101D2000DFE00E9490092097E1F30E946E0FF9CF47
:101D3000FC0184859585FC01E05CFF4F20813181A9
:101D4000FC01EE5BFF4F80819181281B390B2F73C3
:101D50003327C9010895FC0184859585FC01E05C69
:101D6000FF4F40815181FC01EE5BFF4F20813181AB
:101D70004217530741F00190F081E02DE80FF91F61
:101D8000208130E002C02FEF3FEFC9010895FC0130
:101D900084859585FC01E05CFF4F40815181FC0109
:101DA000EE5BFF4F208131814217530781F0A08104
:101DB000B181A80FB91F8C91208131812F5F3F4FD6
:101DC0002F73332731832083282F30E002C02FEF79
:101DD0003FEFC9010895FC0181A1882329F0A4895E
:101DE000B5898C9186FFFBCF11A20895CF93DF9325
:101DF000FC0126853785D901A05CBF4F8D919C9150
:101E0000119701968F739927E901CE5BDF4F4881C7
:101E1000598184179507D9F30D90BC91A02DA20F7D
:101E2000B31F6C93A685B785A05CBF4F11969C939A
:101E30008E93A689B7892C9181E090E0078C02C02F
:101E4000880F991F0A94E2F7282B2C9381E081A335
:101E50000488F589E02D80818064808381E090E0B2
:101E6000DF91CF91089508951F920F920FB60F92B0
:101E700011242F933F934F938F939F93EF93FF934F
:101E80008091C00082FD1CC04091C6008091050376
:101E90009091060301968F73992720910703309143
:101EA00008038217930771F0E0910503F091060390
:101EB000EB53FD4F4083909306038093050302C0CC
:101EC0008091C600FF91EF919F918F914F913F912B
:101ED0002F910F900FBE0F901F9018958FE592E0F5
:101EE0000E94980E892B11F00C94330F08951F92C5
:101EF0000F920FB60F9211242F933F938F939F93BE
:101F0000EF93FF932091C1023091C2028091C302EE
:101F10009091C4022817390731F48091C1008F7D58
:101F20008093C10014C0E091C302F091C402EF5746
:101F3000FD4F20818091C3029091C40201968F735E
:101F400099279093C4028093C3022093C600FF9107
:101F5000EF919F918F913F912F910F900FBE0F9016
:101F60001F901895CF92DF92EF92FF92CF93DF935D
:101F7000EC016A017B01411581EE5807610571058D
:101F8000F9F0EC89FD8981E090E008A002C0880F9B
:101F9000991F0A94E2F7808360E079E08DE390E096
:101FA000A70196010E94771F21503109410951096B
:101FB0005695479537952795211580E1380798F074
:101FC000EC89FD89108260E874E88EE190E0A70159
:101FD00096010E94771F21503109410951095695F8
:101FE000479537952795E889F9893083EA89FB89F0
:101FF000208319A2EE89FF89408181E090E09C0155
:102000000C8C02C0220F331F0A94E2F7422B40834C
:10201000EE89FF8940819C010D8C02C0220F331F85
:102020000A94E2F7422B4083EE89FF8940819C01AC
:102030000E8C02C0220F331F0A94E2F7422B40831A
:10204000EE89FF8920810F8C02C0880F991F0A94A6
:10205000E2F7809582238083DF91CF91FF90EF900C
:10206000DF90CF900895109262021092610288EE84
:1020700093E0A0E0B0E08093630290936402A093A9
:102080006502B093660286E191E0909360028093CE
:102090005F0285EC92E090936C0280936B0281E882
:1020A00092E090936E0280936D0285EC90E09093A5
:1020B000700280936F0284EC90E0909372028093A0
:1020C000710280EC90E0909374028093730281EC33
:1020D00090E0909376028093750282EC90E090936A
:1020E00078028093770286EC90E090937A02809356
:1020F000790284E080937B0283E080937C0287E016
:1021000080937D0285E080937E0281E080937F0250
:102110000895FC016083EB50FF4F10820895CF9328
:10212000DF93EC01898D9A8D9195819591099A8F14
:10213000898F8D8D9E8D9195819591099E8F8D8F23
:10214000688186E293E00E94D117BE01675E7F4FEF
:1021500048E050E086E293E00E94491786E293E06F
:102160000E94EE17898D9A8D9195819591099A8F8C
:10217000898F8D8D9E8D9195819591099E8F8D8FE3
:10218000DF91CF910895EF92FF920F931F93CF931A
:10219000DF937C01EB0100E010E0F701E00FF11F9D
:1021A00061817281838194810E94A71D24EE3BECA2
:1021B00046E152E40E94941E0E94741D6993799333
:1021C000899399930C5F1F4F0031110531F7DF910F
:1021D000CF911F910F91FF90EF900895EF92FF9292
:1021E0000F931F93CF93DF938C017B01EA0124EEC1
:1021F0003BEC46E152E4FC0161A172A183A194A1F0
:102200000E94941E0E94741DF70160837183828373
:102210009383F80165A176A187A190A50E94A71DCF
:1022200024EE3BEC46E152E40E94941E0E94741D91
:10223000688379838A839B83DF91CF911F910F916C
:10224000FF90EF9008952F923F924F925F926F927E
:102250007F928F929F92AF92BF92CF92DF92EF9236
:10226000FF920F931F93CF93DF93CDB7DEB72A97DB
:102270000FB6F894DEBF0FBECDBF9A8789876D83F6
:102280007E830E94890B6B017C01E985FA85EB5006
:10229000FF4F208130E0F901B896EE0FFF1FEE0FDF
:1022A000FF1F89859A85E80FF91F85A596A5A7A523
:1022B000B0A946015701881A990AAA0ABB0A9D814A
:1022C0009983AE81AA8329843A84F90154E0EE0F00
:1022D000FF1F5A95E1F7FC83EB83E20DF31DF887AE
:1022E000EF8300E010E0A981BA816D917D918D911D
:1022F0009D91BA83A983EF81F885E00FF11F45A472
:1023000056A467A470A864197509860997090E94E4
:10231000A71D20E034E244E759E40E94941E2B01FB
:102320003C01C501B4010E94A51D9B01AC01C30184
:10233000B2010E940C1D0E94741DF101728B618B11
:102340000C5F1F4FF2E02F0E311C0031110559F6C2
:1023500029853A85235D3F4F8B819C81280F391F4A
:1023600080E1ED81FE81D90101900D928A95E1F71E
:10237000E985FA85EB50FF4F8081A985BA8594E005
:10238000899FA00DB11D1124A056BF4F9D96CD92DF
:10239000DD92ED92FC92D097893010F48F5F01C0EE
:1023A00080E080832A960FB6F894DEBF0FBECDBFC3
:1023B000DF91CF911F910F91FF90EF90DF90CF9021
:1023C000BF90AF909F908F907F906F905F904F9055
:1023D0003F902F9008952F923F924F925F926F926D
:1023E0007F928F929F92AF92BF92CF92DF92EF92A5
:1023F000FF920F931F93CF93DF93CDB7DEB7649710
:102400000FB6F894DEBF0FBECDBF1C010E94890B32
:102410006B017C0180910903811112C089E093E076
:102420000E947D0E892B61F0C0921103D09212039D
:10243000E0921303F092140389E093E00E94870E68
:1024400080911103909112038601081B190BC09211
:102450001103D0921203E0921303F0921403F101DE
:102460006585768587859089C580D680E780F084EC
:102470006C197D098E099F09C184D284E384F48498
:102480006C0D7D1D8E1D9F1DC180D280E380F48068
:102490006C197D098E099F090E94A71D24EE3BEC53
:1024A00046E152E40E94941E27E13DE14FE45FE3E0
:1024B0000E940C1DC62ED72EE82EF92EF101C1A6C2
:1024C000D2A6E3A6F4A68788908CAA2497FCA094B1
:1024D000BA2C238934896901EE24D7FCE094FE2CC0
:1024E000C982DA82EB82FC82258936896901EE2471
:1024F000D7FCE094FE2CCD82DE82EF82F886218923
:1025000032896901EE24D7FCE094FE2CC986DA8674
:10251000EB86FC8620E030E04AE754E40E940C1D84
:102520006B017C017D2D9F2D0E94F71E6D877E879C
:102530008F87988B6C2D7D2D8E2D9F2D0E94091DD0
:10254000698B7A8B8B8B9C8BC501B401C980DA8037
:10255000EB80FC806C197D098E099F09CD80DE809F
:10256000EF80F8846C197D098E099F09C984DA848B
:10257000EB84FC846C0D7D1D8E1D9F1DE4E0CE2E32
:10258000D12CE12CF12CA70196010E94991FB901D1
:10259000882777FD8095982F0E94A71D2B013C016D
:1025A00069817A818B819C81680D791D8A1D9B1DB3
:1025B0002D813E814F815885620F731F841F951FA7
:1025C00029853A854B855C85620F731F841F951F93
:1025D000A70196010E94991FB901882777FD809570
:1025E000982F0E94A71D4B015C01C8016AE070E0B2
:1025F0000E94631F80E090E00E94A51D6B017C019A
:1026000029893A894B895C89C301B2010E94941ED1
:1026100069837A838B839C832D853E854F8558897A
:10262000C501B4010E94941E9B01AC0169817A81AD
:102630008B819C810E94A01CA70196010E94941E80
:1026400020E030E543EC57E40E940C1D9B01AC01F7
:10265000F10161A172A183A194A10E94A11CF101C9
:1026600061A372A383A394A365A176A187A190A57A
:102670000E94A71D69837A838B839C832D853E8569
:102680004F855889C301B2010E94941E2B013C0161
:1026900029893A894B895C89C501B4010E94941E3D
:1026A0009B01AC01C301B2010E94A11CA7019601CC
:1026B0000E94941E20E030E543EC57E40E940C1D7C
:1026C0009B01AC0169817A818B819C810E94A11C54
:1026D0000E94741DF10165A376A387A390A7649659
:1026E0000FB6F894DEBF0FBECDBFDF91CF911F9123
:1026F0000F91FF90EF90DF90CF90BF90AF909F90A1
:102700008F907F906F905F904F903F902F900895A3
:10271000DF92EF92FF920F931F93CF93DF93EC0121
:1027200040E1688186E293E00E94CE1786E293E062
:102730000E941B174097B4F18E010F5F1F4F780165
:10274000F0E1DF2E86E293E00E942417F7018193E7
:102750007F01DA94B9F78D819E81AF81B885B095FC
:10276000A095909581959F4FAF4FBF4F8D839E83CE
:10277000AF83B8874D855E856F8578897095609544
:10278000509541955F4F6F4F7F4F4D875E876F87A5
:10279000788BB801CE010E942311CE010E94EB116B
:1027A00081E001C080E0DF91CF911F910F91FF90F8
:1027B000EF90DF9008950F931F93CF93DF93EC0179
:1027C00086E293E00E94B7170AE010E0CE010E9473
:1027D00088138823D9F301501109C1F719A21AA24D
:1027E0001BA21CA21DA21EA21FA218A619A61AA6F1
:1027F0001BA61CA6DF91CF911F910F910895BF9248
:10280000CF92DF92EF92FF920F931F93CF93DF93BC
:10281000EB018A018881998197FF03C09195819589
:102820009109CA80DB80D7FE03C0D194C194D1083E
:102830002C813D8137FF03C0319521953109C216A6
:10284000D3060CF46901C816D9060CF46C018E810C
:102850009F8197FF03C0919581959109C816D9066C
:102860000CF46C010C151D059CF4A4E0BA2EEE24AA
:10287000D7FCE094FE2C28813981D8010E94481FA2
:10288000A70196010E94991F29933993BA9499F749
:10289000DF91CF911F910F91FF90EF90DF90CF903C
:1028A000BF900895FF920F931F93CF93DF93EC0196
:1028B000CA01860F971FFC01E20FF31FF8A3EF8FE9
:1028C000461B570BBA01621B730B7C8F6B8F420F39
:1028D000531F5E8F4D8F821B930B9A8F898FBE0182
:1028E000675E7F4F4FEF50E0CE010E94FF13FE0165
:1028F00044E0B6EEFB2E0FEF10E0218D328D37FF56
:102900000DC021503F4FF29EC001F39E900D112447
:10291000B8010E94631F6F5F71090DC02115310559
:1029200061F0F29EC001F39E900D1124B8010E9447
:10293000631F675E7F4F728F618F415032964111E6
:10294000DCCFCE01DF91CF911F910F91FF900C94BE
:102950008F102F923F924F925F926F927F928F9241
:102960009F92AF92BF92CF92DF92EF92FF920F931E
:102970001F93CF93DF93CDB7DEB72E970FB6F894A2
:10298000DEBF0FBECDBF9E878D874A015B01C901A7
:10299000B801A50194010E94A01C1B018C01AD850A
:1029A000BE852D913D914D915C91732D912F0E948B
:1029B000941E6D837E838F839887ED85FE85858D3C
:1029C000968DA78DB0A1A7019601281B390B4A0B44
:1029D0005B0BCA01B9010E94A51D2B013C01A50199
:1029E0009401AD85BE8551966D917D918D919C919F
:1029F00054970E94A01CA30192010E940C1DED851A
:102A0000FE8520853185428553850E94941E698705
:102A10007A878B879C87AD85BE8514962D913D91D5
:102A20004D915C911797622D732D802F912F0E94ED
:102A3000941EA30192010E94941EED85FE852585BA
:102A40003685478550890E94A11C1B012C01862FC9
:102A5000932DA42DB52DED85FE8585879687A787B7
:102A6000B08B618C728C038D148D262D372D402FE9
:102A7000512F622D732D842D952D0E94901E1816B6
:102A80005CF4862D972DA02FB12FED85FE858587CF
:102A90009687A787B08B20C0AD85BE8555962D91B2
:102AA0003D914D915C91589729833A834B835C8388
:102AB000622D732D842D952D0E94051D87FF0CC05E
:102AC00029813A814B815C81AD85BE851D962D9310
:102AD0003D934D935C935097ED85FE852585368516
:102AE00047855089C58ED68EE78EF0A2818A928A5C
:102AF000A38AB48ABD81AE81EF81F8846B2F7A2FCF
:102B00008E2F9F2D0E94A11CB985AA85EB85FC8480
:102B10002B2F3A2F4E2F5F2D0E94A11C6B017C01A1
:102B2000262D372D402F512F6C2D7D2D8E2D9F2D35
:102B30000E94901E1816DCF0AD85BE8555966C90EF
:102B4000559756967C90569757960C91579758964E
:102B50001C91262D372D402F512F6C2D7D2D8E2D24
:102B60009F2D0E94051D87FD02C036018701662D3D
:102B7000772D802F912F2E960FB6F894DEBF0FBEC3
:102B8000CDBFDF91CF911F910F91FF90EF90DF901C
:102B9000CF90BF90AF909F908F907F906F905F90FD
:102BA0004F903F902F9008954F925F926F927F9237
:102BB0008F929F92AF92BF92CF92DF92EF92FF924D
:102BC0000F931F93CF93DF93EC014A015B01280120
:102BD000390120E030E0A901C501B4010E94051DC2
:102BE00087FD36C020E030E0A901C301B2010E9498
:102BF000051D87FD2DC020E030E0A901C701B60109
:102C00000E94051D87FD24C08C858823A9F0B7FA92
:102C1000B094B7F8B09488829982AA82BB8277FA7E
:102C2000709477F870944C825D826E827F82F7FA9E
:102C3000F094F7F8F09408C088829982AA82BB8247
:102C40004C825D826E827F82C886D986EA86FB8648
:102C5000DF91CF911F910F91FF90EF90DF90CF9078
:102C6000BF90AF909F908F907F906F905F904F90AC
:102C70000895FC0164876623D9F080819181A28147
:102C8000B381B05880839183A283B38344815581FB
:102C90006681778170584483558366837783408546
:102CA0005185628573857058408751876287738725
:102CB00008954F925F926F927F928F929F92AF9200
:102CC000BF92CF92DF92EF92FF920F931F93CF9319
:102CD000DF93CDB7DEB728970FB6F894DEBF0FBEEF
:102CE000CDBF4C01E982FA820B831C83250136019A
:102CF000DC011D961D921D921D921C925097FC01A5
:102D0000118A128A138A148A2D833E834F8358872F
:102D10000E9439162D813E814F815885D4015596E8
:102D20002D933D934D935C93589789819A81AB8104
:102D3000BC81F401818F928FA38FB48FCF8CD8A0E8
:102D4000E9A0FAA00B8D1C8D2D8D3E8DB301A20143
:102D5000C4010E94D41528960FB6F894DEBF0FBEAA
:102D6000CDBFDF91CF911F910F91FF90EF90DF903A
:102D7000CF90BF90AF909F908F907F906F905F901B
:102D80004F900895CF93C82F8A3019F48DE00E9498
:102D9000C216E0915F02F09160020190F081E02D97
:102DA0006C2F8FE592E0099521E030E0019711F456
:102DB00020E030E0C901CF9108958FE592E00E94B4
:102DC000980E18161906CCF78FE592E00C94C70EF2
:102DD00080911503909116039C012F5F3F4F309314
:102DE000160320931503892B09F582EC96E1909345
:102DF000200380931F038DED96E19093220380932F
:102E0000210383E080931A0310922403109223037A
:102E100087E193E09093E9038093E8039093E703BD
:102E20008093E6039093EB038093EA03089585E291
:102E300093E00C94E8162091560330E080915703FC
:102E4000281B3109C90108958091570390915603B9
:102E5000891750F4E82FF0E0E85AFC4F208130E069
:102E60008F5F8093570302C02FEF3FEFC901089592
:102E7000E091570380915603E81730F4F0E0E85AE8
:102E8000FC4F208130E002C02FEF3FEFC9010895D1
:102E90000895CF92DF92EF92FF920F931F93CF93FB
:102EA000DF937C01CB018A0120913203222391F030
:102EB000EB016B01C40ED51E09C06991D701ED91DC
:102EC000FC910190F081E02DC7010995CC15DD053D
:102ED000A1F703C0642F0E94AB18C801DF91CF9106
:102EE0001F910F91FF90EF90DF90CF900895CF93B7
:102EF000DF931F92CDB7DEB769832091320322237F
:102F0000D1F020913303203240F021E030E0FC0189
:102F10003383228320E030E015C080913403E82F12
:102F2000F0E0EB5CFC4F998190838F5F80933403DA
:102F30008093330305C061E0CE0101960E94AB1877
:102F400021E030E0C9010F90DF91CF910895FC019D
:102F50001382128248EE53E060E070E044835583B0
:102F60006683778386E291E091838083089510924F
:102F700057031092560310923403109233030C94AB
:102F8000F517862F413208F040E268E573E00E94B1
:102F900013181092570380935603089521E00C9460
:102FA000C11781E08093320360935503109234037C
:102FB0001092330308950F93062F21E040913303BD
:102FC00065E373E0809155030E9458181092340312
:102FD00010923303109232030F91089561E00C9424
:102FE000DB1786E293E00C94A7171092810381E02F
:102FF00080937F0310927E0361E082E10E942E1A8B
:1030000061E083E10E942E1AE9EBF0E080818E7F7F
:10301000808380818D7F808388E48093B80085E4FD
:103020008093BC000895413208F03FC09091810325
:103030009111FCCF91E09093810320937F032FEFB8
:103040002093780310927D03242F215020937C033A
:103050009093800390918003880F892B8093800345
:1030600080917E03813041F410927E038091800331
:103070008093BB0085EC01C085EE8093BC008091FD
:1030800081038130E1F380917D03841710F4409136
:103090007D0322E833E0FB01D90102C08D918193C9
:1030A0008A2F821B8417D0F301C040E0842F08953B
:1030B0000F93413208F046C0909181039111FCCFEB
:1030C00092E09093810300937F039FEF90937803A6
:1030D00010927D0340937C03FB0162E873E0DB0107
:1030E00002C091919D939A2F961B9417D0F3109242
:1030F000800390918003880F892B809380038091B7
:103100007E03813041F410927E038091800380938E
:10311000BB0085EC01C085EE8093BC00222321F02A
:10312000809181038230E1F3809178038F3F61F0D9
:1031300080917803803251F080917803803341F49C
:1031400083E007C081E005C080E003C082E001C0E9
:1031500084E00F910895613298F420918103243026
:1031600089F460937A03FC0182EA93E0DC0102C0F7
:1031700021912D932A2F281B2617D0F380E0089544
:1031800081E0089582E0089585ED8093BC008091F0
:10319000BC0084FDFCCF10928103089585EC8093E0
:1031A000BC001092810308951F920F920FB60F92E8
:1031B00011242F933F934F935F936F937F938F933C
:1031C0009F93AF93BF93EF93FF938091B900887F54
:1031D000803609F49FC058F5883209F45BC090F43A
:1031E000803109F452C038F4882309F4F8C08830DB
:1031F00009F0F9C04AC0883109F44CC0803209F0A6
:10320000F2C05CC0803409F46BC038F4803309F438
:1032100055C0883309F0E7C054C0803509F454C064
:10322000883509F462C0883409F0DDC0DAC0883915
:1032300009F4CBC0A8F4883709F46CC038F4883698
:1032400009F468C0803709F0CEC064C0883809F43A
:10325000BCC0803909F464C0803809F0C4C060C0C3
:10326000803B09F48AC038F4803A09F46BC0883A8C
:1032700009F0B9C082C0803C09F4ABC0883C09F4B5
:10328000A8C0883B09F0AFC08DC0809180038093B7
:10329000BB0012C090917D0380917C03981788F544
:1032A00080917D03E82FF0E0EE57FC4F90819093E2
:1032B000BB008F5F80937D0385EC88C0809378038B
:1032C00090C08093780356C080917D039091BB009D
:1032D000E82FF0E0EE57FC4F90838F5F80937D03E3
:1032E00090917D0380917C036DC080917D039091CE
:1032F000BB00E82FF0E0EE57FC4F90838F5F809388
:103300007D0380917F0381116CC081E080937E03F7
:1033100084EA60C083E08093810310927903CCCF6C
:1033200080917903803208F050C0809179039091A8
:10333000BB00E82FF0E0EA53FC4F90838F5F80934F
:103340007903BACF80917903803230F4E091790328
:10335000F0E0EA53FC4F10820E94C4186091790398
:10336000E091C203F091C30370E086EC93E009950D
:10337000109279030E94CE1836C084E080938103B6
:1033800010927B0310927A03E091C403F091C5037D
:10339000099580917A03811105C081E080937A03B9
:1033A0001092A20380917B03E82FF0E0EE55FC4FD2
:1033B00090819093BB008F5F80937B0390917B0300
:1033C00080917A03981708F477CF85E88093BC0042
:1033D0000AC085EC8093BC001092810304C0109257
:1033E00078030E94C418FF91EF91BF91AF919F9114
:1033F0008F917F916F915F914F913F912F910F909E
:103400000FBE0F901F901895833069F028F481301B
:10341000A1F0823011F514C08630B1F08730C1F0D0
:103420008430D9F404C0809180008F7703C08091EC
:1034300080008F7D80938000089584B58F7702C0CF
:1034400084B58F7D84BD08958091B0008F7703C0CF
:103450008091B0008F7D8093B00008950F931F93EB
:10346000CF93DF931F92CDB7DEB7282F30E0F9015D
:10347000E358FE4F8491F901EF56FE4F1491F90184
:10348000EB55FE4F04910023D1F0882321F069838E
:103490000E94041A6981E02FF0E0EE0FFF1FE7544D
:1034A000FE4F85919491DC019FB7F8948C91611146
:1034B00003C01095812301C0812B8C939FBF0F9077
:1034C000DF91CF911F910F910895F8940C94F21F02
:1034D000283008F027E03327DA01990F311D87FDE6
:1034E000916000966105710539F432602E5F3D935D
:1034F00030E32A95E1F708959F3F30F08038710559
:10350000610509F03C5F3C5F3D93913008F08068B5
:10351000911DDF93CF931F930F93FF92EF92192F7B
:10352000987F9695E92F96959695E90FFF27E35E8C
:10353000FD4F99273327EE24FF24A701E7010590CB
:103540000894079428F4360FE71EF81E491F511DF2
:10355000660F771F881F991F0694A1F7059007949F
:1035600028F4E70EF81E491F561FC11D770F881F4C
:10357000991F661F0694A1F70590079428F4F80E8A
:10358000491F561FC71FD11D880F991F661F771F20
:103590000694A1F70590079420F4490F561FC71F02
:1035A000D81F990F661F771F881F0694A9F784916B
:1035B0001095177041F0D695C79557954795F79494
:1035C000E7941A95C1F7E3ECF1E068941590159132
:1035D00035916591959105907FE27395E118F10A17
:1035E000430B560BC90BD009C0F7E10CF11E431F6A
:1035F000561FC91FD01D7EF4703311F48A95E6CF93
:10360000E894015030F0080F0AF40027021708F47C
:10361000202F2395022F7A3328F079E37D932A9582
:10362000E9F710C07D932A9589F6069497956795DA
:10363000379517951794E118F10A430B560BC90BF0
:10364000D00998F023957E9173957A3308F070E352
:103650007C932013B8F77E9170617D9330F0839551
:1036600071E37D9370E32A95E1F71124EF90FF90C9
:103670000F911F91CF91DF91992787FD9095089524
:103680009111BFC3803219F089508550D0F7089549
:103690009111089581548A5108F4805E855A0895E5
:1036A000FC010590061621F00020D9F7C00108950D
:1036B0003197CF010895FC010590615070400110D1
:1036C000D8F7809590958E0F9F1F0895FC0161504B
:1036D000704001900110D8F7809590958E0F9F1F34
:1036E0000895CF93DF93EC013B8130FF34C036FF68
:1036F0000AC03F7B3B838E819F8101969F838E838F
:103700002A8130E02AC032FF0FC0E881F981808130
:10371000992787FD9095009719F430623B831BC071
:103720003196F983E8830EC0EA85FB85099597FFFA
:1037300009C02B81019611F480E101C080E2822B47
:103740008B8309C02E813F812F5F3F4F3F832E83A4
:103750009C01332702C02FEF3FEFC901DF91CF91CA
:1037600008950F931F93CF93DF938C01EB018B810F
:1037700081FD03C00FEF1FEF1AC082FF0DC02E8125
:103780003F818C819D812817390764F4E881F98194
:103790000193F983E88306C0E885F985802F0995B0
:1037A000892B41F78E819F8101969F838E83C8016B
:1037B000DF91CF911F910F910895A2E0B0E0E3EE69
:1037C000FBE10C94C31FFE01399661917191FA835C
:1037D000E98308EE13E0D8018D919C91DC011396EA
:1037E0002C911397286013962C93AF010E948D01A2
:1037F000D801ED91FC912381277F23832296E4E079
:103800000C94DF1FA2E0B0E0E8E0FCE10C94C31FE1
:10381000FE01399661917191FA83E98306EE13E016
:10382000D8018D919C91DC0113962C9113972860FF
:1038300013962C93AF010E943A08D801ED91FC91A8
:103840002381277F23832296E4E00C94DF1FFB0172
:10385000238120FF13C026FD11C08F3F3FEF930748
:1038600069F082832F7D2064238326813781215054
:103870003109378326839C01332702C02FEF3FEFA6
:10388000C9010895FA01AA27283051F1203181F1A8
:10389000E8946F936E7F6E5F7F4F8F4F9F4FAF4F58
:1038A000B1E03ED0B4E03CD0670F781F891F9A1F6B
:1038B000A11D680F791F8A1F911DA11D6A0F711D1F
:1038C000811D911DA11D20D009F468943F912AE02B
:1038D000269F11243019305D3193DEF6CF01089513
:1038E000462F4770405D4193B3E00FD0C9F7F6CF44
:1038F000462F4F70405D4A3318F0495D31FD40520C
:10390000419302D0A9F7EACFB4E0A69597958795A1
:1039100077956795BA95C9F7009761057105089580
:103920009B01AC010A2E069457954795379527952C
:10393000BA95C9F7620F731F841F951FA01D0895C4
:103940005058BB27AA270ED0A0C169D130F06ED144
:1039500020F031F49F3F11F41EF45EC10EF4E095A7
:10396000E7FB54C1E92FB3D180F3BA17620773079D
:103970008407950718F071F49EF5CBC10EF4E0951D
:103980000B2EBA2FA02D0B01B90190010C01CA0119
:10399000A0011124FF27591B99F0593F50F4503EC4
:1039A00068F11A16F040A22F232F342F4427585FB6
:1039B000F3CF469537952795A795F0405395C9F7CE
:1039C0007EF41F16BA0B620B730B840BBAF0915086
:1039D000A1F0FF0FBB1F661F771F881FC2F70EC025
:1039E000BA0F621F731F841F48F4879577956795F8
:1039F000B795F7959E3F08F0B3CF9395880F08F0E1
:103A00009927EE0F979587950895DCD008F481E00B
:103A1000089514D1E3954AC10CD037C107D140F0C5
:103A2000FED030F021F45F3F19F0F0C0511172C1A7
:103A3000F3C04DD198F39923C9F35523B1F3951BE6
:103A4000550BBB27AA2762177307840738F09F5FBF
:103A50005F4F220F331F441FAA1FA9F333D00E2E2E
:103A60003AF0E0E830D091505040E695001CCAF79B
:103A700029D0FE2F27D0660F771F881FBB1F261760
:103A800037074807AB07B0E809F0BB0B802DBF0133
:103A9000FF2793585F4F2AF09E3F510568F0B6C04C
:103AA00039C15F3FECF3983EDCF3869577956795D7
:103AB000B795F7959F5FC9F7880F911D96958795E4
:103AC00097F90895E1E0660F771F881FBB1F621703
:103AD00073078407BA0720F0621B730B840BBA0BC1
:103AE000EE1F88F7E095089504D06894B11112C1D3
:103AF0000895F5D088F09F5790F0B92F9927B751C6
:103B0000A0F0D1F0660F771F881F991F1AF0BA95A1
:103B1000C9F712C0B13081F0FCD0B1E00895F9C00E
:103B2000672F782F8827B85F39F0B93FCCF3869597
:103B300077956795B395D9F73EF4909580957095F4
:103B400061957F4F8F4F9F4F0895E89409C097FB71
:103B50003EF490958095709561957F4F8F4F9F4F64
:103B60009923A9F0F92F96E9BB279395F6958795A8
:103B700077956795B795F111F8CFFAF4BB0F11F46B
:103B800060FF1BC06F5F7F4F8F4F9F4F16C0882312
:103B900011F096E911C0772321F09EE8872F762F48
:103BA00005C0662371F096E8862F70E060E02AF089
:103BB0009A95660F771F881FDAF7880F9695879575
:103BC00097F90895990F0008550FAA0BE0E8FEEF4A
:103BD00016161706E807F907C0F012161306E407D1
:103BE000F50798F0621B730B840B950B39F40A26CA
:103BF00061F0232B242B252B21F408950A2609F4A8
:103C0000A140A6958FEF811D811D089597F99F67AB
:103C100080E870E060E008959FEF80EC0895002454
:103C20000A941616170618060906089500240A9421
:103C300012161306140605060895EECF50D0E8F3C9
:103C4000E894E0E0BB279F57F0F02AED3FE049EC15
:103C500006C0EE0FBB0F661F771F881F28F0B23A11
:103C600062077307840728F0B25A620B730B840B48
:103C7000E3959A9572F7803830F49A95BB0F661FDA
:103C8000771F881FD2F79048C1C0092E0394000CFB
:103C900011F4882352F0BB0F40F4BF2B11F460FFE6
:103CA00004C06F5F7F4F8F4F9F4F0895EF93E0FFEA
:103CB00006C0A2EA2AED3FE049EC5FEB53DEE5DF08
:103CC0000F90039401FC9058E8E6F0E0ABC057FD7C
:103CD0009058440F551F59F05F3F71F04795880F7A
:103CE00097FB991F61F09F3F79F087950895121611
:103CF00013061406551FF2CF4695F1DF08C01616BD
:103D000017061806991FF1CF86957105610508946D
:103D10000895E894BB2766277727CB0197F9089584
:103D200051DF08F48FEF08950BD0AFCF78DF28F084
:103D30007DDF18F0952309F069CF6ECF1124EACF0B
:103D4000C6DFA0F3959FD1F3950F50E0551F629FFA
:103D5000F001729FBB27F00DB11D639FAA27F00DE4
:103D6000B11DAA1F649F6627B00DA11D661F829F0B
:103D70002227B00DA11D621F739FB00DA11D621FF0
:103D8000839FA00D611D221F749F3327A00D611D0D
:103D9000231F849F600D211D822F762F6A2F1124EF
:103DA0009F5750408AF0E1F088234AF0EE0FFF1F42
:103DB000BB1F661F771F881F91505040A9F79E3F79
:103DC000510570F023CFA6CF5F3FECF3983EDCF3B4
:103DD000869577956795B795F795E7959F5FC1F7B6
:103DE000FE2B880F911D9695879597F908959F93BF
:103DF00025DF0F9007FCEE5F59CFE4DE880B990BAF
:103E000008959927882708959F3F31F0915020F415
:103E1000879577956795B795880F911D96958795A6
:103E200097F908959F938F937F936F93FF93EF93E9
:103E30009B01AC0179DFEF91FF9105D02F913F916C
:103E40004F915F9171CFDF93CF931F930F93FF92A9
:103E5000EF92DF927B018C01689405C0DA2EEF01AE
:103E60006FDFFE01E894A59125913591459155911B
:103E7000AEF3EF0177DDFE019701A801DA9479F73F
:103E8000DF90EF90FF900F911F91CF91DF910895F8
:103E90000E94501F332312F48A1B9B0B0C945E1F4D
:103EA000A29FB001B39FC001A39F01D0B29F700D2C
:103EB000811D1124911D08950E94501FB7FF089580
:103EC000821B930B0895AA1BBB1B51E107C0AA1FBD
:103ED000BB1FA617B70710F0A61BB70B881F991FAB
:103EE0005A95A9F780959095BC01CD010895A1E25E
:103EF0001A2EAA1BBB1BFD010DC0AA1FBB1FEE1F64
:103F0000FF1FA217B307E407F50720F0A21BB30BAE
:103F1000E40BF50B661F771F881F991F1A9469F72A
:103F200060957095809590959B01AC01BD01CF0186
:103F30000895052E97FB16F4009407D057FD0DD079
:103F40000E94771F07FC09D07EF4909580957095AC
:103F500061957F4F8F4F9F4F0895509540953095B5
:103F600021953F4F4F4F5F4F08952F923F924F92B1
:103F70005F926F927F928F929F92AF92BF92CF92F9
:103F8000DF92EF92FF920F931F93CF93DF93CDB702
:103F9000DEB7CA1BDB0B0FB6F894DEBF0FBECDBF7A
:103FA00009942A88398848885F846E847D848C844B
:103FB0009B84AA84B984C884DF80EE80FD800C8154
:103FC0001B81AA81B981CE0FD11D0FB6F894DEBF37
:103FD0000FBECDBFED010895EE0FFF1F0590F491C8
:083FE000E02D0994F894FFCFD5
:103FE800A470BD3F6E616E00696E66006F766600F4
:103FF8002E0000000000F60E140C980EC70EAB0E33
:10400800EB0E00000000771749171B172417381705
:02401800481747
:00000001FF
