:100000000C946A000C9492000C9492000C94920050
:100010000C9492000C9492000C9492000C94920018
:100020000C9492000C9492000C9492000C94920008
:100030000C9492000C9492000C9492000C949200F8
:100040000C946D020C9492000C94FB030C943E04EF
:100050000C9492000C9492000C9492000C949200D8
:100060000C94270C0C94920005A84CCDB2D44EB938
:100070003836A9020C50B9918688083CA6AAAA2A4B
:10008000BE000000803F00000007000201000003E6
:100090000406000000000000000001020408102017
:1000A000408001020408102001020408102004040A
:1000B0000404040404040202020202020303030310
:1000C000030300000000250028002B006402FA044E
:1000D0006A0A440B11241FBECFEFD8E0DEBFCDBFAC
:1000E00011E0A0E0B1E0EAE4F1E202C005900D9277
:1000F000A032B107D9F714E0A0E2B1E001C01D922F
:10010000A533B107E1F710E0C4EDD0E004C02297B9
:10011000FE010E949F10CC3CD107C9F70E945203F8
:100120000C94B80D0C940000DC01ED91FC91019051
:10013000F081E02D0994CF93DF93CDB7DEB7EA9736
:100140000FB6F894DEBF0FBECDBF0E94B7026DABF5
:100150007EAB8FAB98AF88EA91E00E94F4080E94D2
:10016000B70269AB7AAB8BAB9CABBE016F5F7F4FC5
:1001700088EA91E00E949305BE01675E7F4F88EA9E
:1001800091E00E948A059E01275C3F4FAE01475DCA
:100190005F4FBE01635D7F4F88EA91E00E94450694
:1001A000AE014F5D5F4FBE016B5D7F4F88EA91E00E
:1001B0000E94C705BE016F5E7F4F88EA91E00E94F2
:1001C0009C0560E370E088EA92E00E94940044E0BD
:1001D00050E0BE016B5C7F4F88EA92E00E941C03F6
:1001E00061E370E088EA92E00E94940044E050E00D
:1001F000BE01635F7F4F88EA92E00E941C0362E3C6
:1002000070E088EA92E00E94940044E050E0BE0171
:100210006B5F7F4F88EA92E00E941C0363E370E00B
:1002200088EA92E00E94940044E050E0BE01675FDB
:100230007F4F88EA92E00E941C0364E370E088EA42
:1002400092E00E94940044E050E0BE016F5F7F4F57
:1002500088EA92E00E941C0365E370E088EA92E07D
:100260000E94940042E050E0BE01615E7F4F88EA48
:1002700092E00E941C0366E370E088EA92E00E942C
:10028000940042E050E0BE01655E7F4F88EA92E054
:100290000E941C0367E370E088EA92E00E949400E9
:1002A00042E050E0BE01635E7F4F88EA92E00E9428
:1002B0001C0368E370E088EA92E00E94940042E048
:1002C00050E0BE01675E7F4F88EA92E00E941C0307
:1002D00069E370E088EA92E00E94940044E050E014
:1002E000BE01635D7F4F88EA92E00E941C0361E4D7
:1002F00070E088EA92E00E94940044E050E0BE0181
:10030000675D7F4F88EA92E00E941C0362E470E020
:1003100088EA92E00E94940044E050E0BE01675CED
:100320007F4F88EA92E00E941C0363E470E088EA51
:1003300092E00E94940044E050E0BE016B5D7F4F6C
:1003400088EA92E00E941C0364E470E088EA92E08C
:100350000E94940044E050E0BE016F5D7F4F88EA48
:1003600092E00E941C0365E470E088EA92E00E943B
:10037000940042E050E0BE01695E7F4F88EA92E05F
:100380000E941C0366E470E088EA92E00E949400F8
:1003900042E050E0BE016D5E7F4F88EA92E00E942D
:1003A0001C0367E470E088EA92E00E94940042E057
:1003B00050E0BE016B5E7F4F88EA92E00E941C0312
:1003C00068E470E088EA92E00E94940042E050E025
:1003D000BE016F5E7F4F88EA92E00E941C0369E4D1
:1003E00070E088EA92E00E94940044E050E0BE0190
:1003F0006F5C7F4F88EA92E00E941C036AE470E021
:1004000088EA92E00E949400EA960FB6F894DEBF64
:100410000FBECDBFDF91CF91089540E052EC61E077
:1004200070E088EA92E00E94790488EA91E00C94F6
:100430004709CF93DF9388EA92E00E945F03892BFC
:1004400079F1C091A601D091A70188EA92E00E94BB
:100450008E03FE01EA5DFE4F80832196D093A701B3
:10046000C093A6012697E0F0809126019091270184
:100470009093250180932401809128019091290176
:10048000909323018093220180912A0190912B0166
:1004900090932101809320011092A7011092A60150
:1004A000209120013091210140912201509123019E
:1004B000609124017091250188EA91E00E94BE09B3
:1004C000DF91CF910C949B008EE992E00E943B0A51
:1004D0006CE088EA91E00C9450051F920F920FB6E1
:1004E0000F9211242F933F938F939F93AF93BF93BA
:1004F00080919F029091A002A091A102B091A202CE
:100500003091A702232F2D5F2D3720F40196A11DD6
:10051000B11D05C0232F2A570296A11DB11D20939E
:10052000A70280939F029093A002A093A102B09390
:10053000A2028091A3029091A402A091A502B09181
:10054000A6020196A11DB11D8093A3029093A4025F
:10055000A093A502B093A602BF91AF919F918F91F6
:100560003F912F910F900FBE0F901F9018950F93F2
:100570001F939FB7F8940091A3021091A4022091B9
:10058000A5023091A60286B5A89B06C08F3F21F038
:100590000F5F1F4F2F4F3F4F9FBF322F212F102F25
:1005A0000027080F111D211D311D42E0000F111FF2
:1005B000221F331F4A95D1F7B801C9011F910F912E
:1005C0000895789484B5826084BD84B5816084BDCB
:1005D00085B5826085BD85B5816085BDEEE6F0E0BC
:1005E000808181608083E1E8F0E010828081826018
:1005F0008083808181608083E0E8F0E08081816099
:100600008083E1EBF0E0808184608083E0EBF0E0C8
:10061000808181608083EAE7F0E08081846080836C
:100620008081826080838081816080838081806816
:1006300080831092C1000895CF92DF92EF92FF92D3
:100640000F931F93CF93DF936C01EB017A01E60EBA
:10065000F71E00E010E00BC06991D601ED91FC910E
:100660000190F081E02DC6010995080F191FCE15E4
:10067000DF0591F7C801DF91CF911F910F91FF9096
:10068000EF90DF90CF90089521E030E0FC01808171
:10069000882311F020E030E0C901089521E0FC0139
:1006A000208308950E94E1020E940D02C5E3D4E078
:1006B0000E9419022097E1F30E943504F9CFFC0152
:1006C00084859585FC01E05CFF4F20813181FC0130
:1006D000EE5BFF4F80819181281B390B2F733327ED
:1006E000C9010895FC0184859585FC01E05CFF4FFC
:1006F00040815181FC01EE5BFF4F20813181421727
:10070000530741F00190F081E02DE80FF91F20819F
:1007100030E002C02FEF3FEFC9010895FC0184854E
:100720009585FC01E05CFF4F40815181FC01EE5B4F
:10073000FF4F208131814217530781F0A081B181A1
:10074000A80FB91F8C91208131812F5F3F4F2F73EC
:10075000332731832083282F30E002C02FEF3FEF73
:10076000C9010895FC0181A1882329F0A489B589D4
:100770008C9186FFFBCF11A20895CF93DF93FC01EC
:1007800026853785D901A05CBF4F8D919C9111972B
:1007900001968F739927E901CE5BDF4F488159811C
:1007A00084179507D9F30D90BC91A02DA20FB31F0C
:1007B0006C93A685B785A05CBF4F11969C938E93D2
:1007C000A689B7892C9181E090E0078C02C0880F40
:1007D000991F0A94E2F7282B2C9381E081A30488C7
:1007E000F589E02D80818064808381E090E0DF9155
:1007F000CF91089508951F920F920FB60F92112472
:100800002F933F934F938F939F93EF93FF938091F9
:10081000C00082FD1CC04091C60080914E039091A3
:100820004F0301968F739927209150033091510304
:100830008217930771F0E0914E03F0914F03E25F4E
:10084000FC4F408390934F0380934E0302C08091EE
:10085000C600FF91EF919F918F914F913F912F9102
:100860000F900FBE0F901F90189588EA92E00E949B
:100870005F03892B11F00C94FA0308951F920F92D5
:100880000FB60F9211242F933F938F939F93EF9363
:10089000FF9320910A0330910B0380910C039091F8
:1008A0000D032817390731F48091C1008F7D8093A3
:1008B000C10014C0E0910C03F0910D03E653FD4F0D
:1008C000208180910C0390910D0301968F739927DD
:1008D00090930D0380930C032093C600FF91EF913A
:1008E0009F918F913F912F910F900FBE0F901F906E
:1008F0001895CF92DF92EF92FF92CF93DF93EC01A6
:100900006A017B01411581EE580761057105F9F017
:10091000EC89FD8981E090E008A002C0880F991F52
:100920000A94E2F7808360E079E08DE390E0A7012C
:1009300096010E945F1021503109410951095695D5
:10094000479537952795211580E1380798F0EC8970
:10095000FD89108260E874E88EE190E0A7019601BD
:100960000E945F1021503109410951095695479560
:1009700037952795E889F9893083EA89FB892083AF
:1009800019A2EE89FF89408181E090E09C010C8CE6
:1009900002C0220F331F0A94E2F7422B4083EE89F4
:1009A000FF8940819C010D8C02C0220F331F0A94E5
:1009B000E2F7422B4083EE89FF8940819C010E8C37
:1009C00002C0220F331F0A94E2F7422B4083EE89C4
:1009D000FF8920810F8C02C0880F991F0A94E2F7CB
:1009E000809582238083DF91CF91FF90EF90DF90FD
:1009F000CF9008951092AB021092AA0288EE93E075
:100A0000A0E0B0E08093AC029093AD02A093AE0260
:100A1000B093AF0284E091E09093A9028093A80282
:100A20008EE093E09093B5028093B4028AEC92E05A
:100A30009093B7028093B60285EC90E09093B90250
:100A40008093B80284EC90E09093BB028093BA024A
:100A500080EC90E09093BD028093BC0281EC90E02A
:100A60009093BF028093BE0282EC90E09093C1020B
:100A70008093C00286EC90E09093C3028093C20200
:100A800084E08093C40283E08093C50287E0809372
:100A9000C60285E08093C70281E08093C802089572
:100AA000FC016083EB50FF4F10820895CF93DF93DA
:100AB000EC01898D9A8D9195819591099A8F898FF5
:100AC0008D8D9E8D9195819591099E8F8D8F6881D9
:100AD0008FE693E00E94240BBE01675E7F4F48E0E3
:100AE00050E08FE693E00E949C0A8FE693E00E941C
:100AF000410B898D9A8D9195819591099A8F898F56
:100B00008D8D9E8D9195819591099E8F8D8FDF9111
:100B1000CF910895FC01799688E0DB0101900D9258
:100B20008A95E1F70895FC01319680E1DB0101909F
:100B30000D928A95E1F70895EF92FF920F931F931C
:100B4000CF93DF937C01EB0100E010E0F701E00FB1
:100B5000F11F61897289882777FD8095982F0E94FF
:100B6000BE0E24EE3BEC46E152E40E94830F0E944D
:100B70008B0E699379930E5F1F4F0830110531F783
:100B8000DF91CF911F910F91FF90EF9008958F9279
:100B90009F92AF92BF92CF92DF92EF92FF920F930C
:100BA0001F93CF93DF93EC017B018A016D857E85D6
:100BB0008F8598898D809E80AF80B8846819790967
:100BC0008A099B0989849A84AB84BC846819790951
:100BD0008A099B0989809A80AB80BC80680D791D49
:100BE0008A1D9B1D0E94BE0E24EE3BEC46E152E4A2
:100BF0000E94830F20E030E040E85EE30E94830F14
:100C00000E948B0EF70160837183828393836D85CD
:100C10007E858F859889CD80DE80EF80F8846C0D8D
:100C20007D1D8E1D9F1DC984DA84EB84FC846C0DB0
:100C30007D1D8E1D9F1DC980DA80EB80FC806C0DB0
:100C40007D1D8E1D9F1D0E94BE0E24EE3BEC46E1D5
:100C500052E40E94830F20E030E040E85EE30E940F
:100C6000830F0E948B0EF8016083718382839383CC
:100C7000DF91CF911F910F91FF90EF90DF90CF9078
:100C8000BF90AF909F908F900895CF92DF92EF9298
:100C9000FF920F931F93CF93DF938C016B017A0127
:100CA000E90124EE3BEC46E152E4FC0161A172A1B2
:100CB00083A194A10E94830F0E948B0EF601608392
:100CC000718382839383F80165A176A187A190A5A2
:100CD0000E94BE0E24EE3BEC46E152E40E94830FDC
:100CE0000E948B0EF701608371838283938324EECD
:100CF0003BEC46E152E4F80161A572A583A594A5F9
:100D00000E94830F0E94900E79836883DF91CF91B8
:100D10001F910F91FF90EF90DF90CF9008952F9249
:100D20003F924F925F926F927F928F929F92AF927B
:100D3000BF92CF92DF92EF92FF920F931F93CF93C8
:100D4000DF93CDB7DEB72A970FB6F894DEBF0FBE9C
:100D5000CDBF9A8789876D837E830E94B7026B011E
:100D60007C01E985FA85EB50FF4F208130E0F901E5
:100D7000B896EE0FFF1FEE0FFF1F89859A85E80FCB
:100D8000F91F85A596A5A7A5B0A946015701881A00
:100D9000990AAA0ABB0A9D819983AE81AA832984F4
:100DA0003A84F90154E0EE0FFF1F5A95E1F7FC83F6
:100DB000EB83E20DF31DF887EF8300E010E0A981DB
:100DC000BA816D917D918D919D91BA83A983EF81B7
:100DD000F885E00FF11F45A456A467A470A8641914
:100DE0007509860997090E94BE0E20E034E244E7A7
:100DF00059E40E94830F2B013C01C501B4010E94FC
:100E0000BC0E9B01AC01C301B2010E94230E0E94E3
:100E10008B0EF101728B618B0C5F1F4FF2E02F0E76
:100E2000311C0031110559F629853A85235D3F4F64
:100E30008B819C81280F391F80E1ED81FE81D901D2
:100E400001900D928A95E1F7E985FA85EB50FF4F05
:100E50008081A985BA8594E0899FA00DB11D1124D8
:100E6000A056BF4F9D96CD92DD92ED92FC92D09709
:100E7000893010F48F5F01C080E080832A960FB61E
:100E8000F894DEBF0FBECDBFDF91CF911F910F91C0
:100E9000FF90EF90DF90CF90BF90AF909F908F909A
:100EA0007F906F905F904F903F902F9008952F927A
:100EB0003F924F925F926F927F928F929F92AF92EA
:100EC000BF92CF92DF92EF92FF920F931F93CF9337
:100ED000DF93CDB7DEB764970FB6F894DEBF0FBED1
:100EE000CDBF1C010E94B7026B017C0180915203AF
:100EF000811112C082E593E00E944403892B61F0C6
:100F0000C0925A03D0925B03E0925C03F0925D03BF
:100F100082E593E00E944E0380915A0390915B0317
:100F20008601081B190BC0925A03D0925B03E09212
:100F30005C03F0925D03F101658576858785908974
:100F4000C580D680E780F0846C197D098E099F09E1
:100F5000C184D284E384F4846C0D7D1D8E1D9F1D9D
:100F6000C180D280E380F4806C197D098E099F09CD
:100F70000E94BE0E24EE3BEC46E152E40E94830F39
:100F800027E13DE14FE45FE30E94230EC62ED72EFA
:100F9000E82EF92EF101C1A6D2A6E3A6F4A6878811
:100FA000908CAA2497FCA094BA2C238934896901D7
:100FB000EE24D7FCE094FE2CC982DA82EB82FC821C
:100FC000258936896901EE24D7FCE094FE2CCD8278
:100FD000DE82EF82F886218932896901EE24D7FC0E
:100FE000E094FE2CC986DA86EB86FC8620E030E0B1
:100FF0004AE754E40E94230E6B017C017D2D9F2D56
:101000000E94E60F6D877E878F87988B6C2D7D2DD4
:101010008E2D9F2D0E94200E698B7A8B8B8B9C8B43
:10102000C501B401C980DA80EB80FC806C197D09B0
:101030008E099F09CD80DE80EF80F8846C197D09D0
:101040008E099F09C984DA84EB84FC846C0D7D1DB4
:101050008E1D9F1DE4E0CE2ED12CE12CF12CA7019A
:1010600096010E948110B901882777FD8095982FFD
:101070000E94BE0E2B013C0169817A818B819C818B
:10108000680D791D8A1D9B1D2D813E814F815885DC
:10109000620F731F841F951F29853A854B855C85D8
:1010A000620F731F841F951FA70196010E94811074
:1010B000B901882777FD8095982F0E94BE0E4B01BD
:1010C0005C01C8016AE070E00E944B1080E090E093
:1010D0000E94BC0E6B017C0129893A894B895C898D
:1010E000C301B2010E94830F69837A838B839C833F
:1010F0002D853E854F855889C501B4010E94830F17
:101100009B01AC0169817A818B819C810E94BB0D1E
:10111000A70196010E94830F20E030E543EC57E4DD
:101120000E94230E9B01AC01F10161A172A183A178
:1011300094A10E94BC0DF10161A372A383A394A3A7
:1011400065A176A187A190A50E94BE0E69837A83CE
:101150008B839C832D853E854F855889C301B201C1
:101160000E94830F2B013C0129893A894B895C89B4
:10117000C501B4010E94830F9B01AC01C301B20100
:101180000E94BC0DA70196010E94830F20E030E56C
:1011900043EC57E40E94230E9B01AC0169817A81E4
:1011A0008B819C810E94BC0D0E948B0EF10165A376
:1011B00076A387A390A764960FB6F894DEBF0FBE00
:1011C000CDBFDF91CF911F910F91FF90EF90DF90F6
:1011D000CF90BF90AF909F908F907F906F905F90D7
:1011E0004F903F902F900895DF92EF92FF920F93D0
:1011F0001F93CF93DF93EC0140E168818FE693E08A
:101200000E94210B8FE693E00E946E0A4097B4F192
:101210008E010F5F1F4F7801F0E1DF2E8FE693E024
:101220000E94770AF70181937F01DA94B9F78D81E3
:101230009E81AF81B885B095A095909581959F4F7F
:10124000AF4FBF4F8D839E83AF83B8874D855E853B
:101250006F85788970956095509541955F4F6F4F78
:101260007F4F4D875E876F87788BB801CE010E94D4
:101270008F06CE010E94570781E001C080E0DF9118
:10128000CF911F910F91FF90EF90DF9008950F93F2
:101290001F93CF93DF93EC018FE693E00E940A0B3C
:1012A0000AE010E0CE010E94F4088823D9F301502F
:1012B0001109C1F719A21AA21BA21CA21DA21EA2EB
:1012C0001FA218A619A61AA61BA61CA6DF91CF91CD
:1012D0001F910F910895BF92CF92DF92EF92FF92EC
:1012E0000F931F93CF93DF93EB018A01888199813C
:1012F00097FF03C0919581959109CA80DB80D7FE45
:1013000003C0D194C194D1082C813D8137FF03C023
:10131000319521953109C216D3060CF46901C8161E
:10132000D9060CF46C018E819F8197FF03C09195C3
:1013300081959109C816D9060CF46C010C151D0590
:101340009CF4A4E0BA2EEE24D7FCE094FE2C288175
:101350003981D8010E943010A70196010E948110A6
:1013600029933993BA9499F7DF91CF911F910F91F7
:10137000FF90EF90DF90CF90BF900895FF920F9372
:101380001F93CF93DF93EC01CA01860F971FFC01D7
:10139000E20FF31FF8A3EF8F461B570BBA01621B36
:1013A000730B7C8F6B8F420F531F5E8F4D8F821B91
:1013B000930B9A8F898FBE01675E7F4F4FEF50E08E
:1013C000CE010E946B09FE0144E0B6EEFB2E0FEF4A
:1013D00010E0218D328D37FF0DC021503F4FF29E1E
:1013E000C001F39E900D1124B8010E944B106F5F55
:1013F00071090DC02115310561F0F29EC001F39E07
:10140000900D1124B8010E944B10675E7F4F728FC0
:10141000618F415032964111DCCFCE01DF91CF91E7
:101420001F910F91FF900C945605CF93C82F8A30CF
:1014300019F48DE00E94150AE091A802F091A9022A
:101440000190F081E02D6C2F88EA92E0099521E06F
:1014500030E0019711F420E030E0C901CF91089508
:1014600088EA92E00E945F0318161906CCF788EA12
:1014700092E00C948E0380915E0390915F039C0137
:101480002F5F3F4F30935F0320935E03892B09F555
:1014900085E19AE0909369038093680380E39AE082
:1014A00090936B0380936A0383E0809363031092AD
:1014B0006D0310926C0380E693E090933204809366
:1014C00031049093300480932F04909334048093DC
:1014D000330408958EE693E00C943B0A20919F0319
:1014E00030E08091A003281B3109C9010895809143
:1014F000A00390919F03891750F4E82FF0E0EF5577
:10150000FC4F208130E08F5F8093A00302C02FEF5B
:101510003FEFC9010895E091A00380919F03E81770
:1015200030F4F0E0EF55FC4F208130E002C02FEFA7
:101530003FEFC90108950895CF92DF92EF92FF9295
:101540000F931F93CF93DF937C01CB018A012091EE
:101550007B03222391F0EB016B01C40ED51E09C061
:101560006991D701ED91FC910190F081E02DC701C7
:101570000995CC15DD05A1F703C0642F0E94FE0B71
:10158000C801DF91CF911F910F91FF90EF90DF90F5
:10159000CF900895CF93DF931F92CDB7DEB76983C5
:1015A00020917B032223D1F020917C03203240F054
:1015B00021E030E0FC013383228320E030E015C0DD
:1015C00080917D03E82FF0E0E258FC4F99819083F1
:1015D0008F5F80937D0380937C0305C061E0CE0123
:1015E00001960E94FE0B21E030E0C9010F90DF91CF
:1015F000CF910895FC011382128248EE53E060E01F
:1016000070E0448355836683778384E191E091831E
:10161000808308951092A00310929F0310927D037F
:1016200010927C030C94480B862F413208F040E264
:1016300061EA73E00E94660B1092A00380939F03FF
:10164000089521E00C94140B81E080937B03609358
:101650009E0310927D0310927C0308950F93062F32
:1016600021E040917C036EE773E080919E030E942D
:10167000AB0B10927D0310927C0310927B030F91B1
:10168000089561E00C942E0B8FE693E00C94FA0A17
:101690001092CA0381E08093C8031092C70361E0EF
:1016A00082E10E94810D61E083E10E94810DE9EBFE
:1016B000F0E080818E7F808380818D7F808388E4CD
:1016C0008093B80085E48093BC000895413208F00F
:1016D0003FC09091CA039111FCCF91E09093CA034F
:1016E0002093C8032FEF2093C1031092C603242F29
:1016F00021502093C5039093C9039091C903880F8B
:10170000892B8093C9038091C703813041F41092E3
:10171000C7038091C9038093BB0085EC01C085EEAF
:101720008093BC008091CA038130E1F38091C603AD
:10173000841710F44091C6032BEC33E0FB01D90170
:1017400002C08D9181938A2F821B8417D0F301C030
:1017500040E0842F08950F93413208F046C09091E5
:10176000CA039111FCCF92E09093CA030093C8037F
:101770009FEF9093C1031092C6034093C503FB01F2
:101780006BEC73E0DB0102C091919D939A2F961B45
:101790009417D0F31092C9039091C903880F892B35
:1017A0008093C9038091C703813041F41092C7032D
:1017B0008091C9038093BB0085EC01C085EE8093C6
:1017C000BC00222321F08091CA038230E1F3809192
:1017D000C1038F3F61F08091C103803251F080914D
:1017E000C103803341F483E007C081E005C080E09D
:1017F00003C082E001C084E00F910895613298F443
:101800002091CA03243089F46093C303FC018BEE5A
:1018100093E0DC0102C021912D932A2F281B26176B
:10182000D0F380E0089581E0089582E0089585ED89
:101830008093BC008091BC0084FDFCCF1092CA0351
:10184000089585EC8093BC001092CA0308951F92FE
:101850000F920FB60F9211242F933F934F935F93E4
:101860006F937F938F939F93AF93BF93EF93FF9368
:101870008091B900887F803609F49FC058F588327E
:1018800009F45BC090F4803109F452C038F4882325
:1018900009F4F8C0883009F0F9C04AC0883109F469
:1018A0004CC0803209F0F2C05CC0803409F46BC0D7
:1018B00038F4803309F455C0883309F0E7C054C0C8
:1018C000803509F454C0883509F462C0883409F0C1
:1018D000DDC0DAC0883909F4CBC0A8F4883709F430
:1018E0006CC038F4883609F468C0803709F0CEC07F
:1018F00064C0883809F4BCC0803909F464C08038F9
:1019000009F0C4C060C0803B09F48AC038F4803A52
:1019100009F46BC0883A09F0B9C082C0803C09F470
:10192000ABC0883C09F4A8C0883B09F0AFC08DC0AB
:101930008091C9038093BB0012C09091C60380912F
:10194000C503981788F58091C603E82FF0E0E553AA
:10195000FC4F90819093BB008F5F8093C60385EC12
:1019600088C08093C10390C08093C10356C080910A
:10197000C6039091BB00E82FF0E0E553FC4F908345
:101980008F5F8093C6039091C6038091C5036DC09D
:101990008091C6039091BB00E82FF0E0E553FC4F27
:1019A00090838F5F8093C6038091C80381116CC0C0
:1019B00081E08093C70384EA60C083E08093CA0318
:1019C0001092C203CCCF8091C203803208F050C085
:1019D0008091C2039091BB00E82FF0E0E15FFB4FE4
:1019E00090838F5F8093C203BACF8091C20380320D
:1019F00030F4E091C203F0E0E15FFB4F10820E94FF
:101A0000170C6091C203E0910B04F0910C0470E09C
:101A10008FE094E009951092C2030E94210C36C019
:101A200084E08093CA031092C4031092C303E09130
:101A30000D04F0910E0409958091C303811105C036
:101A400081E08093C3031092EB038091C403E82FDD
:101A5000F0E0E551FC4F90819093BB008F5F809345
:101A6000C4039091C4038091C303981708F477CFFF
:101A700085E88093BC000AC085EC8093BC0010927E
:101A8000CA0304C01092C1030E94170CFF91EF918A
:101A9000BF91AF919F918F917F916F915F914F9186
:101AA0003F912F910F900FBE0F901F90189583308C
:101AB00069F028F48130A1F0823011F514C086302D
:101AC000B1F08730C1F08430D9F404C08091800037
:101AD0008F7703C0809180008F7D80938000089570
:101AE00084B58F7702C084B58F7D84BD08958091C1
:101AF000B0008F7703C08091B0008F7D8093B000DD
:101B000008950F931F93CF93DF931F92CDB7DEB746
:101B1000282F30E0F901EA57FF4F8491F901E6568A
:101B2000FF4F1491F901E255FF4F04910023D1F0CA
:101B3000882321F069830E94570D6981E02FF0E02E
:101B4000EE0FFF1FEE53FF4F85919491DC019FB77D
:101B5000F8948C91611103C01095812301C0812BF1
:101B60008C939FBF0F90DF91CF911F910F9108959C
:101B7000F8940C94A3105058BB27AA270ED078C114
:101B800041D130F046D120F031F49F3F11F41EF4E2
:101B900036C10EF4E095E7FB2CC1E92F8BD180F321
:101BA000BA17620773078407950718F071F49EF55A
:101BB000A3C10EF4E0950B2EBA2FA02D0B01B90195
:101BC00090010C01CA01A0011124FF27591B99F0B3
:101BD000593F50F4503E68F11A16F040A22F232FBF
:101BE000342F4427585FF3CF469537952795A7950F
:101BF000F0405395C9F77EF41F16BA0B620B730BB6
:101C0000840BBAF09150A1F0FF0FBB1F661F771F26
:101C1000881FC2F70EC0BA0F621F731F841F48F4DB
:101C2000879577956795B795F7959E3F08F0B3CF61
:101C30009395880F08F09927EE0F9795879508954B
:101C4000F0D0E39526C10CD013C1E3D040F0DAD038
:101C500030F021F45F3F19F0CCC051114EC1CFC01C
:101C600029D198F39923C9F35523B1F3951B550B4B
:101C7000BB27AA2762177307840738F09F5F5F4F5F
:101C8000220F331F441FAA1FA9F333D00E2E3AF0A0
:101C9000E0E830D091505040E695001CCAF729D0BA
:101CA000FE2F27D0660F771F881FBB1F2617370709
:101CB0004807AB07B0E809F0BB0B802DBF01FF2739
:101CC00093585F4F2AF09E3F510568F092C015C1AE
:101CD0005F3FECF3983EDCF3869577956795B79573
:101CE000F7959F5FC9F7880F911D9695879597F98E
:101CF0000895E1E0660F771F881FBB1F6217730707
:101D00008407BA0720F0621B730B840BBA0BEE1F1B
:101D100088F7E095089504D06894B111EEC0089555
:101D2000D1D088F09F5790F0B92F9927B751A0F0E4
:101D3000D1F0660F771F881F991F1AF0BA95C9F75F
:101D400012C0B13081F0D8D0B1E00895D5C0672F6E
:101D5000782F8827B85F39F0B93FCCF3869577950F
:101D60006795B395D9F73EF49095809570956195F8
:101D70007F4F8F4F9F4F0895E89409C097FB3EF423
:101D800090958095709561957F4F8F4F9F4F9923C8
:101D9000A9F0F92F96E9BB279395F6958795779546
:101DA0006795B795F111F8CFFAF4BB0F11F460FF06
:101DB0001BC06F5F7F4F8F4F9F4F16C0882311F05E
:101DC00096E911C0772321F09EE8872F762F05C072
:101DD000662371F096E8862F70E060E02AF09A950D
:101DE000660F771F881FDAF7880F9695879597F902
:101DF000089597F99F6780E870E060E008959FEF8D
:101E000080EC089500240A94161617061806090691
:101E1000089500240A941216130614060506089560
:101E2000EECF50D0E8F3E894E0E0BB279F57F0F006
:101E30002AED3FE049EC06C0EE0FBB0F661F771F8F
:101E4000881F28F0B23A62077307840728F0B25A55
:101E5000620B730B840BE3959A9572F7803830F41C
:101E60009A95BB0F661F771F881FD2F79048B6C0A0
:101E7000092E0394000C11F4882352F0BB0F40F498
:101E8000BF2B11F460FF04C06F5F7F4F8F4F9F4FD8
:101E90000895EF93E0FF06C0A2EA2AED3FE049EC87
:101EA0005FEB7BDEE5DF0F90039401FC9058E8E6E2
:101EB000F0E0A0C057FD9058440F551F59F05F3F08
:101EC00071F04795880F97FB991F61F09F3F79F05C
:101ED00087950895121613061406551FF2CF4695DE
:101EE000F1DF08C0161617061806991FF1CF869560
:101EF0007105610508940895E894BB276627772744
:101F0000CB0197F908950BD0B3CF7CDF28F081DFA8
:101F100018F0952309F06DCF72CF1124EECFCADFF0
:101F2000A0F3959FD1F3950F50E0551F629FF001EC
:101F3000729FBB27F00DB11D639FAA27F00DB11D45
:101F4000AA1F649F6627B00DA11D661F829F2227CE
:101F5000B00DA11D621F739FB00DA11D621F839F55
:101F6000A00D611D221F749F3327A00D611D231F2B
:101F7000849F600D211D822F762F6A2F11249F5779
:101F800050408AF0E1F088234AF0EE0FFF1FBB1F9C
:101F9000661F771F881F91505040A9F79E3F51053B
:101FA00070F027CFAACF5F3FECF3983EDCF3869525
:101FB00077956795B795F795E7959F5FC1F7FE2BE6
:101FC000880F911D9695879597F908959F9329DF1E
:101FD0000F9007FCEE5F5DCF9F3F31F0915020F4F2
:101FE000879577956795B795880F911D96958795F5
:101FF00097F908959F938F937F936F93FF93EF9338
:102000009B01AC0180DFEF91FF9105D02F913F91B3
:102010004F915F9178CFDF93CF931F930F93FF92F0
:10202000EF92DF927B018C01689405C0DA2EEF01FC
:1020300076DFFE01E894A591259135914591559162
:10204000AEF3EF01AADDFE019701A801DA9479F75A
:10205000DF90EF90FF900F911F91CF91DF91089546
:102060000E943810332312F48A1B9B0B0C944610E9
:10207000A29FB001B39FC001A39F01D0B29F700D7A
:10208000811D1124911D08950E943810B7FF0895F5
:10209000821B930B0895AA1BBB1B51E107C0AA1F0B
:1020A000BB1FA617B70710F0A61BB70B881F991FF9
:1020B0005A95A9F780959095BC01CD010895A1E2AC
:1020C0001A2EAA1BBB1BFD010DC0AA1FBB1FEE1FB2
:1020D000FF1FA217B307E407F50720F0A21BB30BFD
:1020E000E40BF50B661F771F881F991F1A9469F779
:1020F00060957095809590959B01AC01BD01CF01D5
:102100000895052E97FB16F4009407D057FD0DD0C7
:102110000E945F1007FC09D07EF490958095709521
:1021200061957F4F8F4F9F4F089550954095309503
:1021300021953F4F4F4F5F4F0895EE0FFF1F0590C2
:0A214000F491E02D0994F894FFCF0C
:10214A0000000000BD031C035F038E037203B20389
:10215A0000000000CA0A9C0A6E0A770A8B0A9B0AC8
:00000001FF
