:100000000C9459000C9481000C9481000C94810094
:100010000C9481000C9481000C9481000C9481005C
:100020000C9481000C9481000C9481000C9481004C
:100030000C9481000C9481000C9481000C9481003C
:100040000C9439030C9481000C9450050C94930586
:100050000C9481000C9481000C9481000C9481001C
:100060000C94BF080C9481000000000700020100FE
:100070000003040600000000000000000102040864
:100080001020408001020408102001020408102002
:10009000040404040404040402020202020203032E
:1000A0000303030300000000250028002B004F0677
:1000B0007B0711241FBECFEFD8E0DEBFCDBF11E01C
:1000C000A0E0B1E0ECE8FAE102C005900D92AC3896
:1000D000B107D9F713E0ACE8B1E001C01D92A3313C
:1000E000B107E1F710E0C2EBD0E004C02297FE01B7
:1000F0000E94400DCE3AD107C9F70E94A7040C9484
:10010000EF090C94000040E052EC61E070E089EAF5
:1001100091E00E94CE0583E592E00E94410740E114
:100120006CE083E592E00C945807CF93DF93CDB752
:10013000DEB728970FB6F894DEBF0FBECDBFFC0127
:10014000808191819195819591099A83898382819A
:1001500093819C838B83848195819195819591096D
:100160009E838D838681978198878F836CE083E55A
:1001700092E00E945B0748E050E0BE016F5F7F4F56
:1001800083E592E00E94D30683E592E00E9478071F
:1001900028960FB6F894DEBF0FBECDBFDF91CF918A
:1001A00008950F931F93CF93DF93EC0107C010E1E5
:1001B00083E592E00E94AE061150D1F783E592E00C
:1001C0000E94A50680979CF783E592E00E94A50611
:1001D00040979CF000E911E083E592E00E94AE06B2
:1001E000F80181938F01F1E0003A1F07A9F740E180
:1001F0006CE083E592E00E94580780919001909115
:100200009101A0919201B091930188839983AA836F
:10021000BB838091940190919501A0919601B0913A
:100220009701B095A095909581959F4FAF4FBF4F87
:100230008C839D83AE83BF838091980190919901B7
:10024000A0919A01B0919B0188879987AA87BB8763
:1002500040919C0150919D0160919E0170919F0180
:1002600070956095509541955F4F6F4F7F4F4C87CC
:100270005D876E877F87DF91CF911F910F910895E2
:100280004F925F926F927F92AF92BF92CF92DF9226
:10029000EF92FF920F931F93CF93DF935C016B015B
:1002A0007A01E901FC0120813181FB01408051800C
:1002B00057FE03C0519441945108C90137FF04C04F
:1002C00088279927821B930B481659060CF42C019A
:1002D000F7018081918197FF03C0919581959109E4
:1002E000481659060CF42C018881998197FF03C0A8
:1002F000919581959109481659060CF42C01041525
:1003000015059CF5662457FC6094762CD8010E9454
:10031000930CA30192010E94EB0CF5013183208321
:10032000F60120813181D8010E94930CA301920132
:100330000E94EB0CF60131832083F701208131818B
:10034000D8010E94930CA30192010E94EB0CF701CB
:100350003183208328813981D8010E94930CA30125
:1003600092010E94EB0C39832883DF91CF911F917A
:100370000F91FF90EF90DF90CF90BF90AF907F9064
:100380006F905F904F9008953F924F925F926F925F
:100390007F928F929F92AF92BF92CF92DF92EF9215
:1003A000FF920F931F93CF93DF93CDB7DEB7C8595A
:1003B000D1090FB6F894DEBF0FBECDBF4E0181E963
:1003C000880E911C88E0F40111928A95E9F7CE011C
:1003D0008F579F4F0E94D10080E00E94D0038C0174
:1003E00081E00E94D0032C01B801882777FD809519
:1003F000982F1F921F921F9233243A943F92AA245F
:10040000A394BB24BA94CB2CDB2CEE24EA9413E007
:10041000F12E00E010E020E030E0A9010E94F1039D
:100420003B01B201882777FD8095982F1F921F927C
:100430001F923F9220E030E0A9010E94F1037B016E
:100440009301D3010E94930C5B016C019701D701CA
:100450000E94930CA60EB71EC81ED91E0FB6F894A4
:10046000DEBF0FBECDBF99ECA916B104C104D10403
:10047000DCF0C70186199709F40193838283260D66
:10048000371D378326833183208395838483A4019A
:100490004E5F5F4FB4016C5F7F4F0FEF10E0940130
:1004A000C40106960E944001CE018F569F4F0E94C4
:1004B00095000E94830380908C0190908D01A09004
:1004C0008E01B0908F01681979098A099B09693CEE
:1004D00071058105910508F4B3C0C457DF4F8881C9
:1004E000CC58D0408F93C557DF4F8881CB58D04030
:1004F0008F93C657DF4F8881CA58D0408F93C75714
:10050000DF4F8881C958D0408F93CC57DF4F888107
:10051000C458D0408F93CD57DF4F8881C358D04007
:100520008F93CE57DF4F8881C258D0408F93CF57DB
:10053000DF4F8881C158D0408F93C057DF4F8881EB
:10054000C059D0408F93C157DF4F8881CF58D040DA
:100550008F93C257DF4F8881CE58D0408F93C357B7
:10056000DF4F8881CD58D0408F93C857DF4F8881A7
:10057000C858D0408F93C957DF4F8881C758D040A3
:100580008F93CA57DF4F8881C658D0408F93CB577F
:10059000DF4F8881C558D0408F93CA56DF4F88817E
:1005A000C659D0408F93CB56DF4F8881C559D04074
:1005B0008F93CE56DF4F8881C259D0408F93CF564C
:1005C000DF4F8881C159D0408F93C856DF4F888153
:1005D000C859D0408F93C956DF4F8881C759D04042
:1005E0008F93CC56DF4F8881C459D0408F93CD561E
:1005F000DF4F8881C359D0408F93FF92EF927F9253
:100600006F9285E091E09F938F938E010F5F1F4F54
:100610001F930F930E94F2090FB6F894DEBF0FBE2E
:10062000CDBFB80189EA91E00E9493040E94830340
:1006300060938C0170938D0180938E0190938F0154
:10064000C856DF4F0FB6F894DEBF0FBECDBFDF91A7
:10065000CF911F910F91FF90EF90DF90CF90BF90BF
:10066000AF909F908F907F906F905F904F903F9052
:1006700008951F920F920FB60F9211242F933F935C
:100680008F939F93AF93BF938091A0019091A1010D
:10069000A091A201B091A3013091A801232F2D5F59
:1006A0002D3720F40196A11DB11D05C0232F2A5717
:1006B0000296A11DB11D2093A8018093A0019093E3
:1006C000A101A093A201B093A3018091A4019091F4
:1006D000A501A091A601B091A7010196A11DB11D90
:1006E0008093A4019093A501A093A601B093A701C4
:1006F000BF91AF919F918F913F912F910F900FBE1E
:100700000F901F9018950F931F938FB7F894009137
:10071000A0011091A1012091A2013091A3018FBFEE
:10072000B801C9011F910F910895789484B5826032
:1007300084BD84B5816084BD85B5826085BD85B585
:10074000816085BDEEE6F0E0808181608083E1E834
:10075000F0E010828081826080838081816080836C
:10076000E0E8F0E0808181608083E1EBF0E080816F
:1007700084608083E0EBF0E0808181608083EAE741
:10078000F0E08081846080838081826080838081CA
:10079000816080838081806880831092C100089589
:1007A0008E3008F08E5087702091040140E4249F21
:1007B00090011124822B80937C0080917A008064C8
:1007C00080937A0080917A0086FDFCCF209178009A
:1007D00030917900932F80E0AC01422B9A01C9013E
:1007E00008954F925F926F927F92AF92BF92CF9295
:1007F000DF92EF92FF920F931F93CF93DF93CDB7CA
:10080000DEB729013A01621B730B840B950B298912
:100810003A894B895C892A193B094C095D09298B66
:100820003A8B4B8B5C8B9B01AC0169897A898B89F4
:100830009C890E94B90CE418F50806091709A8015B
:1008400097010E94EB0C2A0D3B1D4C1D5D1DB9014B
:10085000CA01DF91CF911F910F91FF90EF90DF9030
:10086000CF90BF90AF907F906F905F904F90089522
:10087000CF92DF92EF92FF920F931F93CF93DF936C
:100880006C01EB017A01E60EF71E00E010E00BC0F0
:100890006991D601ED91FC910190F081E02DC601A6
:1008A0000995080F191FCE15DF0591F7C801DF91D3
:1008B000CF911F910F91FF90EF90DF90CF9008950F
:1008C0006115710581F0DB010D900020E9F7AD01A4
:1008D00041505109461B570BDC01ED91FC91028000
:1008E000F381E02D099480E090E00895DC01ED9122
:1008F000FC910190F081E02D09940F931F93CF9309
:10090000DF93EC016DE00E9476048C016AE0CE0179
:100910000E9476049C01200F311FC901DF91CF9105
:100920001F910F9108950F931F93CF93DF93EC01C5
:100930000E9460048C01CE010E947D049801280F62
:10094000391FC901DF91CF911F910F9108950E9426
:1009500095030E948300CAE8D5E00E94C401209755
:10096000E1F30E948A05F9CFFC0184859585FC019D
:10097000E05CFF4F20813181FC01EE5BFF4F808105
:100980009181281B390B2F733327C9010895FC016E
:1009900084859585FC01E05CFF4F40815181FC011D
:1009A000EE5BFF4F208131814217530741F00190E8
:1009B000F081E02DE80FF91F208130E002C02FEF19
:1009C0003FEFC9010895FC0184859585FC01E05C39
:1009D000FF4F40815181FC01EE5BFF4F208131814F
:1009E0004217530781F0A081B181A80FB91F8C91E4
:1009F000208131812F5F3F4F2F7333273183208335
:100A0000282F30E002C02FEF3FEFC9010895FC010D
:100A100081A1882329F0A489B5898C9186FFFBCF19
:100A200011A20895CF93DF93FC0126853785D90164
:100A3000A05CBF4F8D919C91119701968F73992760
:100A4000E901CE5BDF4F4881598184179507D9F3BF
:100A50000D90BC91A02DA20FB31F6C93A685B785F6
:100A6000A05CBF4F11969C938E93A689B7892C9159
:100A700081E090E0078C02C0880F991F0A94E2F78A
:100A8000282B2C9381E081A30488F589E02D8081B7
:100A90008064808381E090E0DF91CF910895089594
:100AA0001F920F920FB60F9211242F933F934F93E3
:100AB0008F939F93EF93FF938091C00082FD1CC0A2
:100AC0004091C60080914F029091500201968F7321
:100AD000992720915102309152028217930771F0A9
:100AE000E0914F02F0915002E15FFD4F40839093FF
:100AF000500280934F0202C08091C600FF91EF9197
:100B00009F918F914F913F912F910F900FBE0F901A
:100B10001F90189589EA91E00E94B404892B11F086
:100B20000C944F0508951F920F920FB60F92112447
:100B30002F933F938F939F93EF93FF9320910B02FB
:100B400030910C0280910D0290910E022817390706
:100B500031F48091C1008F7D8093C10014C0E09179
:100B60000D02F0910E02E553FE4F208180910D029F
:100B700090910E0201968F73992790930E028093A5
:100B80000D022093C600FF91EF919F918F913F91AD
:100B90002F910F900FBE0F901F901895CF92DF925C
:100BA000EF92FF92CF93DF93EC016A017B01411535
:100BB00081EE580761057105F9F0EC89FD8981E046
:100BC00090E008A002C0880F991F0A94E2F7808382
:100BD00060E079E08DE390E0A70196010E94C90CE6
:100BE0002150310941095109569547953795279567
:100BF000211580E1380798F0EC89FD89108260E8C2
:100C000074E88EE190E0A70196010E94C90C215082
:100C10003109410951095695479537952795E88936
:100C2000F9893083EA89FB89208319A2EE89FF893B
:100C3000408181E090E09C010C8C02C0220F331FA8
:100C40000A94E2F7422B4083EE89FF8940819C01A0
:100C50000D8C02C0220F331F0A94E2F7422B40830F
:100C6000EE89FF8940819C010E8C02C0220F331F48
:100C70000A94E2F7422B4083EE89FF8920810F8C92
:100C800002C0880F991F0A94E2F78095822380831F
:100C9000DF91CF91FF90EF90DF90CF900895109269
:100CA000AC011092AB0188EE93E0A0E0B0E080933D
:100CB000AD019093AE01A093AF01B093B0018FE668
:100CC00091E09093AA018093A9018FE092E0909324
:100CD000B6018093B5018BEC91E09093B8018093BD
:100CE000B70185EC90E09093BA018093B90184EC50
:100CF00090E09093BC018093BB0180EC90E09093D6
:100D0000BE018093BD0181EC90E09093C00180937F
:100D1000BF0182EC90E09093C2018093C10186EC08
:100D200090E09093C4018093C30184E08093C50157
:100D300083E08093C60187E08093C70185E08093BC
:100D4000C80181E08093C90108952091830230E0B9
:100D500080918402281B3109C90108958091840281
:100D600090918302891750F4E82FF0E0EB57FD4F84
:100D7000208130E08F5F8093840202C02FEF3FEF2D
:100D8000C9010895E091840280918302E81730F44C
:100D9000F0E0EB57FD4F208130E002C02FEF3FEF36
:100DA000C90108950895CF92DF92EF92FF920F93B9
:100DB0001F93CF93DF937C01CB018A0120915F02C7
:100DC000222391F0EB016B01C40ED51E09C069917D
:100DD000D701ED91FC910190F081E02DC7010995BB
:100DE000CC15DD05A1F703C0642F0E949608C80149
:100DF000DF91CF911F910F91FF90EF90DF90CF90F7
:100E00000895CF93DF931F92CDB7DEB7698320910A
:100E10005F022223D1F020916002203240F021E0D5
:100E200030E0FC013383228320E030E015C0809164
:100E30006102E82FF0E0EE59FD4F998190838F5FBA
:100E4000809361028093600205C061E0CE0101964B
:100E50000E94960821E030E0C9010F90DF91CF9108
:100E60000895FC011382128248EE53E060E070E0C6
:100E700044835583668377838FE791E091838083F2
:100E800008951092840210928302109261021092CF
:100E900060020C94E007862F413208F040E265E8DA
:100EA00072E00E94FE0710928402809383020895EC
:100EB00021E00C944B0781E080935F0260938202F3
:100EC000109261021092600208950F93062F21E0A4
:100ED0004091600262E672E0809182020E944308C3
:100EE000109261021092600210925F020F910895B9
:100EF00061E00C94650783E592E00C943107833040
:100F000069F028F48130A1F0823011F514C08630E8
:100F1000B1F08730C1F08430D9F404C080918000F2
:100F20008F7703C0809180008F7D8093800008952B
:100F300084B58F7702C084B58F7D84BD089580917C
:100F4000B0008F7703C08091B0008F7D8093B00098
:100F500008950F931F93CF93DF931F92CDB7DEB702
:100F6000282F30E0F901E859FF4F8491F901E45846
:100F7000FF4F1491F901E057FF4F04910023D1F086
:100F8000882321F069830E947F076981E02FF0E0C8
:100F9000EE0FFF1FEC55FF4F85919491DC019FB739
:100FA000F8948C91611103C01095812301C0812BAD
:100FB0008C939FBF0F90DF91CF911F910F91089558
:100FC0001092AE0281E08093AC021092AB0261E01D
:100FD00082E10E94A90761E083E10E94A907E9EB91
:100FE000F0E080818E7F808380818D7F808388E4A4
:100FF0008093B80085E48093BC000895413208F0E6
:101000003FC09091AE029111FCCF91E09093AE025F
:101010002093AC022FEF2093A5021092AA02242F56
:1010200021502093A9029093AD029091AD02880FB8
:10103000892B8093AD028091AB02813041F41092F4
:10104000AB028091AD028093BB0085EC01C085EEC0
:101050008093BC008091AE028130E1F38091AA02BE
:10106000841710F44091AA022FEA32E0FB01D90163
:1010700002C08D9181938A2F821B8417D0F301C007
:1010800040E0842F08950F93413208F046C09091BC
:10109000AE029111FCCF92E09093AE020093AC02AD
:1010A0009FEF9093A5021092AA024093A902FB0120
:1010B0006FEA72E0DB0102C091919D939A2F961B1B
:1010C0009417D0F31092AD029091AD02880F892B46
:1010D0008093AD028091AB02813041F41092AB025B
:1010E0008091AD028093BB0085EC01C085EE8093BA
:1010F000BC00222321F08091AE028230E1F3809186
:10110000A5028F3F61F08091A502803251F080915D
:10111000A502803341F483E007C081E005C080E090
:1011200003C082E001C084E00F910895613298F419
:101130002091AE02243089F46093A702FC018FEC69
:1011400092E0DC0102C021912D932A2F281B261743
:10115000D0F380E0089581E0089582E0089585ED60
:101160008093BC008091BC0084FDFCCF1092AE0245
:10117000089585EC8093BC001092AE0208951F92F2
:101180000F920FB60F9211242F933F934F935F93BB
:101190006F937F938F939F93AF93BF93EF93FF933F
:1011A0008091B900887F803609F49FC058F5883255
:1011B00009F45BC090F4803109F452C038F48823FC
:1011C00009F4F8C0883009F0F9C04AC0883109F440
:1011D0004CC0803209F0F2C05CC0803409F46BC0AE
:1011E00038F4803309F455C0883309F0E7C054C09F
:1011F000803509F454C0883509F462C0883409F098
:10120000DDC0DAC0883909F4CBC0A8F4883709F406
:101210006CC038F4883609F468C0803709F0CEC055
:1012200064C0883809F4BCC0803909F464C08038CF
:1012300009F0C4C060C0803B09F48AC038F4803A29
:1012400009F46BC0883A09F0B9C082C0803C09F447
:10125000ABC0883C09F4A8C0883B09F0AFC08DC082
:101260008091AD028093BB0012C09091AA02809140
:10127000A902981788F58091AA02E82FF0E0E155BD
:10128000FD4F90819093BB008F5F8093AA0285EC05
:1012900088C08093A50290C08093A50256C080911B
:1012A000AA029091BB00E82FF0E0E155FD4F90833A
:1012B0008F5F8093AA029091AA028091A9026DC0CB
:1012C0008091AA029091BB00E82FF0E0E155FD4F1C
:1012D00090838F5F8093AA028091AC0281116CC0D1
:1012E00081E08093AB0284EA60C083E08093AE0229
:1012F0001092A602CCCF8091A602803208F050C096
:101300008091A6029091BB00E82FF0E0ED50FD4FD8
:1013100090838F5F8093A602BACF8091A60280321D
:1013200030F4E091A602F0E0ED50FD4F10820E94F3
:10133000AF086091A602E091EF02F091F00270E038
:1013400083EF92E009951092A6020E94B90836C078
:1013500084E08093AE021092A8021092A702E0915E
:10136000F102F091F20209958091A702811105C066
:1013700081E08093A7021092CF028091A802E82F0B
:10138000F0E0E153FD4F90819093BB008F5F80931D
:10139000A8029091A8028091A702981708F477CF2D
:1013A00085E88093BC000AC085EC8093BC00109255
:1013B000AE0204C01092A5020E94AF08FF91EF9107
:1013C000BF91AF919F918F917F916F915F914F915D
:1013D0003F912F910F900FBE0F901F901895F8948A
:1013E0000C94440DA0E1B0E0E8EFF9E00C94150D89
:1013F0000F89188D86E08C831A8309838FEF9FE70E
:101400009E838D83AE01455E5F4F588B4F87698DFC
:101410007A8DCE0101960E94160AEF81F885E00FC1
:10142000F11F10826096E4E00C94310DACE0B0E066
:10143000ECE1FAE00C94070D7C016B018A01FC01E0
:1014400017821682838181FFC7C188248394912CDF
:101450008C0E9D1EF7019381F60193FD859193FFFC
:1014600081916F01882309F4B3C1853239F493FD6A
:10147000859193FF81916F01853229F4B70190E046
:101480000E94090CE7CF712C312C20E02032A8F407
:101490008B3261F028F4803251F0833271F40BC04A
:1014A0008D3239F0803349F4216028C022602460F5
:1014B00025C0286023C0206121C027FD27C0382F08
:1014C00030533A3078F426FF06C0FAE07F9E300DA4
:1014D0001124732E13C08AE0389E300D1124332E50
:1014E00020620CC08E3221F426FD72C1206406C039
:1014F0008C3611F4206802C0883641F4F60193FD61
:10150000859193FF81916F018111C0CF982F9554E0
:10151000933018F09052933028F40C5F1F4FFFE384
:10152000F9830DC0833631F0833771F0833509F0CC
:101530005EC023C0F801808189830E5F1F4F66243F
:101540006394712C540115C02801F2E04F0E511C18
:10155000F801A080B18026FF03C0672D70E002C0B3
:101560006FEF7FEFC5012C870E94FE0B3C018201CB
:101570002C856FE7262E222218C02801F2E04F0E9C
:10158000511CF801A080B18026FF03C0672D70E0D8
:1015900002C06FEF7FEFC5012C870E94F30B3C0167
:1015A0002C8550E8252E222A820123FC1CC006C06F
:1015B000B70180E290E00E94090C3A94832D90E0FC
:1015C00068167906A8F30FC0F50127FC859127FE60
:1015D00081915F01B70190E00E94090C31103A94AB
:1015E000F1E06F1A71086114710471F7EEC084366E
:1015F00011F0893641F5F80127FF07C0608171813C
:10160000828193810C5F1F4F08C0608171818827A0
:1016100077FD8095982F0E5F1F4F4FE6642E622254
:1016200097FF09C090958095709561957F4F8F4F7A
:101630009F4FF0E86F2A2AE030E0A4010E94350CA9
:10164000A82EA81844C0853731F43FEEB32EB2223D
:101650002AE030E024C099EFB92EB2228F36B9F0DB
:1016600020F4883509F0B4C00DC0803721F08837E8
:1016700009F0AEC002C020E1B22AB4FE0BC084E083
:10168000B82A08C024FF09C0E6E0BE2A06C028E048
:1016900030E005C020E130E002C020E132E0F80196
:1016A000B7FE07C060817181828193810C5F1F4FFB
:1016B00006C06081718180E090E00E5F1F4FA40141
:1016C0000E94350CA82EA8188FE7682E6B2066FEA6
:1016D0000BC0362D3E7FA71450F464FE0AC062FC96
:1016E00008C0362D3E7E05C0BA2C362D03C0BA2C5C
:1016F00001C0B72C34FF0DC0FE01EA0DF11D808141
:10170000803311F4397E09C032FF06C0B394B3941C
:1017100004C0832F867809F0B39433FD14C030FFE2
:101720000FC07A2CB31460F4730C7B18B32C08C070
:10173000B70180E290E03C870E94090CB3943C859D
:10174000B314B0F304C0B31410F43B1801C0312C2F
:1017500034FF12C0B70180E390E03C870E94090C7F
:101760003C8532FF1EC031FF03C088E590E002C017
:1017700088E790E0B7010CC0832F867891F031FDA7
:1017800002C080E201C08BE237FD8DE2B70190E03C
:101790000E94090C06C0B70180E390E00E94090C8A
:1017A0007A94A714C0F3AA94F401EA0DF11DB701CD
:1017B000808190E00E94090CA110F5CF06C0B7010E
:1017C00080E290E00E94090C3A943110F8CF42CEAA
:1017D000F7012681378102C02FEF3FEFC9012C9618
:1017E000E2E10C94230DFC01059061507040011062
:1017F000D8F7809590958E0F9F1F0895FC0161503A
:10180000704001900110D8F7809590958E0F9F1F22
:1018100008950F931F93CF93DF938C01EB018B817E
:1018200081FD03C00FEF1FEF1AC082FF0DC02E8194
:101830003F818C819D812817390764F4E881F98103
:101840000193F983E88306C0E885F985802F09951F
:10185000892B41F78E819F8101969F838E83C801DA
:10186000DF91CF911F910F910895FA01AA27283097
:1018700051F1203181F1E8946F936E7F6E5F7F4F5D
:101880008F4F9F4FAF4FB1E03ED0B4E03CD0670FD9
:10189000781F891F9A1FA11D680F791F8A1F911D2C
:1018A000A11D6A0F711D811D911DA11D20D009F47C
:1018B00068943F912AE0269F11243019305D3193BE
:1018C000DEF6CF010895462F4770405D4193B3E0A7
:1018D0000FD0C9F7F6CF462F4F70405D4A3318F04E
:1018E000495D31FD4052419302D0A9F7EACFB4E0FF
:1018F000A6959795879577956795BA95C9F70097B7
:101900006105710508959B01AC010A2E0694579557
:10191000479537952795BA95C9F7620F731F841FAE
:10192000951FA01D08950E949B0C332312F48A1B5F
:101930009B0B0C94A90CA29FB001B39FC001A39F65
:1019400001D0B29F700D811D1124911D08950E9438
:101950009B0CB7FF0895821B930B08950E949B0C6C
:10196000A59F900DB49F900DA49F800D911D1124F3
:101970000895DB018F939F930E94AE0CBF91AF91AE
:10198000A29F800D911DA39F900DB29F900D1124D9
:101990000895A1E21A2EAA1BBB1BFD010DC0AA1FB0
:1019A000BB1FEE1FFF1FA217B307E407F50720F0C8
:1019B000A21BB30BE40BF50B661F771F881F991F43
:1019C0001A9469F760957095809590959B01AC018C
:1019D000BD01CF010895052E97FB16F4009407D0A2
:1019E00057FD0DD00E94C90C07FC09D07EF49095DC
:1019F0008095709561957F4F8F4F9F4F08955095BB
:101A00004095309521953F4F4F4F5F4F08952F924E
:101A10003F924F925F926F927F928F929F92AF927E
:101A2000BF92CF92DF92EF92FF920F931F93CF93CB
:101A3000DF93CDB7DEB7CA1BDB0B0FB6F894DEBF62
:101A40000FBECDBF09942A88398848885F846E8488
:101A50007D848C849B84AA84B984C884DF80EE80D2
:101A6000FD800C811B81AA81B981CE0FD11D0FB6DB
:101A7000F894DEBF0FBECDBFED010895EE0FFF1F3E
:0C1A80000590F491E02D0994F894FFCF3C
:101A8C0001000000017876616C3A25346420797687
:101A9C00616C3A2534642046527370643A25346480
:101AAC0020464C7370643A2534642042527370643F
:101ABC003A25346420424C7370643A2534642046D1
:101ACC00526473743A25376C6420464C6473743AD0
:101ADC0025376C642042526473743A25376C642049
:101AEC00424C6473743A25376C6400000000001299
:101AFC00053804B404E304C7040705000000000122
:0C1B0C0007D306A506AE06C206D20600EE
:00000001FF
